{
  "_format": "hh-sol-artifact-1",
  "contractName": "Forum",
  "sourceName": "contracts/Forum.sol",
  "abi": [
    {
      "inputs": [
        {
          "internalType": "address[]",
          "name": "_moderators",
          "type": "address[]"
        },
        {
          "internalType": "address",
          "name": "_membershipNFT",
          "type": "address"
        },
        {
          "internalType": "string",
          "name": "_baseURI",
          "type": "string"
        }
      ],
      "stateMutability": "nonpayable",
      "type": "constructor"
    },
    {
      "anonymous": false,
      "inputs": [
        {
          "indexed": true,
          "internalType": "address",
          "name": "previousOwner",
          "type": "address"
        },
        {
          "indexed": true,
          "internalType": "address",
          "name": "newOwner",
          "type": "address"
        }
      ],
      "name": "OwnershipTransferred",
      "type": "event"
    },
    {
      "inputs": [],
      "name": "DAY",
      "outputs": [
        {
          "internalType": "uint256",
          "name": "",
          "type": "uint256"
        }
      ],
      "stateMutability": "view",
      "type": "function"
    },
    {
      "inputs": [],
      "name": "MONTH",
      "outputs": [
        {
          "internalType": "uint256",
          "name": "",
          "type": "uint256"
        }
      ],
      "stateMutability": "view",
      "type": "function"
    },
    {
      "inputs": [],
      "name": "TWODAY",
      "outputs": [
        {
          "internalType": "uint256",
          "name": "",
          "type": "uint256"
        }
      ],
      "stateMutability": "view",
      "type": "function"
    },
    {
      "inputs": [
        {
          "internalType": "uint256",
          "name": "",
          "type": "uint256"
        }
      ],
      "name": "_contributorByIndex",
      "outputs": [
        {
          "internalType": "address",
          "name": "",
          "type": "address"
        }
      ],
      "stateMutability": "view",
      "type": "function"
    },
    {
      "inputs": [],
      "name": "_contributorCounter",
      "outputs": [
        {
          "internalType": "uint256",
          "name": "_value",
          "type": "uint256"
        }
      ],
      "stateMutability": "view",
      "type": "function"
    },
    {
      "inputs": [
        {
          "internalType": "address",
          "name": "user",
          "type": "address"
        },
        {
          "internalType": "uint256",
          "name": "score",
          "type": "uint256"
        }
      ],
      "name": "addContribution",
      "outputs": [],
      "stateMutability": "nonpayable",
      "type": "function"
    },
    {
      "inputs": [],
      "name": "allowedForCaller",
      "outputs": [
        {
          "internalType": "bool",
          "name": "",
          "type": "bool"
        }
      ],
      "stateMutability": "view",
      "type": "function"
    },
    {
      "inputs": [],
      "name": "baseURI",
      "outputs": [
        {
          "internalType": "string",
          "name": "",
          "type": "string"
        }
      ],
      "stateMutability": "view",
      "type": "function"
    },
    {
      "inputs": [
        {
          "internalType": "address",
          "name": "",
          "type": "address"
        }
      ],
      "name": "contributionScore",
      "outputs": [
        {
          "internalType": "uint256",
          "name": "",
          "type": "uint256"
        }
      ],
      "stateMutability": "view",
      "type": "function"
    },
    {
      "inputs": [],
      "name": "dumyCall",
      "outputs": [],
      "stateMutability": "nonpayable",
      "type": "function"
    },
    {
      "inputs": [],
      "name": "getContributors",
      "outputs": [
        {
          "internalType": "address[]",
          "name": "",
          "type": "address[]"
        },
        {
          "internalType": "uint256[]",
          "name": "",
          "type": "uint256[]"
        }
      ],
      "stateMutability": "view",
      "type": "function"
    },
    {
      "inputs": [
        {
          "internalType": "address",
          "name": "user",
          "type": "address"
        }
      ],
      "name": "getScore",
      "outputs": [
        {
          "internalType": "uint256",
          "name": "",
          "type": "uint256"
        }
      ],
      "stateMutability": "view",
      "type": "function"
    },
    {
      "inputs": [],
      "name": "initialized",
      "outputs": [
        {
          "internalType": "bool",
          "name": "",
          "type": "bool"
        }
      ],
      "stateMutability": "view",
      "type": "function"
    },
    {
      "inputs": [
        {
          "internalType": "address",
          "name": "_moderator",
          "type": "address"
        }
      ],
      "name": "isModerator",
      "outputs": [
        {
          "internalType": "bool",
          "name": "",
          "type": "bool"
        }
      ],
      "stateMutability": "view",
      "type": "function"
    },
    {
      "inputs": [
        {
          "internalType": "address",
          "name": "",
          "type": "address"
        }
      ],
      "name": "lastInteractionUser",
      "outputs": [
        {
          "internalType": "uint256",
          "name": "",
          "type": "uint256"
        }
      ],
      "stateMutability": "view",
      "type": "function"
    },
    {
      "inputs": [],
      "name": "moderatorsCount",
      "outputs": [
        {
          "internalType": "uint256",
          "name": "",
          "type": "uint256"
        }
      ],
      "stateMutability": "view",
      "type": "function"
    },
    {
      "inputs": [],
      "name": "owner",
      "outputs": [
        {
          "internalType": "address",
          "name": "",
          "type": "address"
        }
      ],
      "stateMutability": "view",
      "type": "function"
    },
    {
      "inputs": [
        {
          "internalType": "address[]",
          "name": "users",
          "type": "address[]"
        },
        {
          "internalType": "string[]",
          "name": "tokenURIs",
          "type": "string[]"
        }
      ],
      "name": "provideMembership",
      "outputs": [],
      "stateMutability": "nonpayable",
      "type": "function"
    },
    {
      "inputs": [],
      "name": "renounceOwnership",
      "outputs": [],
      "stateMutability": "nonpayable",
      "type": "function"
    },
    {
      "inputs": [
        {
          "internalType": "address[]",
          "name": "users",
          "type": "address[]"
        }
      ],
      "name": "revokeMembership",
      "outputs": [],
      "stateMutability": "nonpayable",
      "type": "function"
    },
    {
      "inputs": [
        {
          "internalType": "address",
          "name": "newOwner",
          "type": "address"
        }
      ],
      "name": "transferOwnership",
      "outputs": [],
      "stateMutability": "nonpayable",
      "type": "function"
    }
  ],
  "bytecode": "0x60a06040526202a300600981905562015180600a556200002190600f62000273565b600b553480156200003157600080fd5b506040516200150838038062001508833981016040819052620000549162000390565b6200005f3362000167565b60025460ff16151560011415620000bc5760405162461bcd60e51b815260206004820152601360248201527f616c726561647920696e697469616c697a656400000000000000000000000000604482015260640160405180910390fd5b82516001600160a01b03831660805260005b818110156200013957600160046000878481518110620000f257620000f262000483565b6020908102919091018101516001600160a01b03168252810191909152604001600020805460ff191691151591909117905580620001308162000499565b915050620000ce565b506002805460ff1916600117905581516200015c906003906020850190620001b7565b5050505050620004f4565b600080546001600160a01b038381166001600160a01b0319831681178455604051919092169283917f8be0079c531659141344cd1fd0a4f28419497f9722a3daafe3b4186f6b6457e09190a35050565b828054620001c590620004b7565b90600052602060002090601f016020900481019282620001e9576000855562000234565b82601f106200020457805160ff191683800117855562000234565b8280016001018555821562000234579182015b828111156200023457825182559160200191906001019062000217565b506200024292915062000246565b5090565b5b8082111562000242576000815560010162000247565b634e487b7160e01b600052601160045260246000fd5b60008160001904831182151516156200029057620002906200025d565b500290565b634e487b7160e01b600052604160045260246000fd5b604051601f8201601f191681016001600160401b0381118282101715620002d657620002d662000295565b604052919050565b80516001600160a01b0381168114620002f657600080fd5b919050565b600082601f8301126200030d57600080fd5b81516001600160401b0381111562000329576200032962000295565b60206200033f601f8301601f19168201620002ab565b82815285828487010111156200035457600080fd5b60005b838110156200037457858101830151828201840152820162000357565b83811115620003865760008385840101525b5095945050505050565b600080600060608486031215620003a657600080fd5b83516001600160401b0380821115620003be57600080fd5b818601915086601f830112620003d357600080fd5b8151602082821115620003ea57620003ea62000295565b8160051b620003fb828201620002ab565b928352848101820192828101908b8511156200041657600080fd5b958301955b848710156200043f576200042f87620002de565b825295830195908301906200041b565b985062000451915050888201620002de565b9550505060408601519150808211156200046a57600080fd5b506200047986828701620002fb565b9150509250925092565b634e487b7160e01b600052603260045260246000fd5b6000600019821415620004b057620004b06200025d565b5060010190565b600181811c90821680620004cc57607f821691505b60208210811415620004ee57634e487b7160e01b600052602260045260246000fd5b50919050565b608051610fea6200051e600039600081816104c60152818161055501526107b00152610fea6000f3fe608060405234801561001057600080fd5b50600436106101375760003560e01c8063923231ff116100b8578063c7fbe1d01161007c578063c7fbe1d014610259578063d47875d01461026c578063d5999a5c1461027f578063dd1dd5c314610288578063f2fde38b146102b1578063fa6f3936146102c457600080fd5b8063923231ff14610208578063ae06711a14610228578063af157c1914610230578063b69cfa5114610246578063c5788d2b1461025057600080fd5b8063715018a6116100ff578063715018a6146101bf57806380f25fbd146101885780638971b464146101c75780638da5cb5b146101da5780638e22cdcd146101ff57600080fd5b8063158ef93e1461013c57806327cfe8561461015e57806339ecacac146101755780636032cb161461018a5780636c0360eb146101aa575b600080fd5b6002546101499060ff1681565b60405190151581526020015b60405180910390f35b610167600a5481565b604051908152602001610155565b610188610183366004610a87565b6102f0565b005b610167610198366004610ab1565b60076020526000908152604090205481565b6101b26103a9565b6040516101559190610b19565b610188610437565b6101886101d5366004610c09565b61044b565b6000546001600160a01b03165b6040516001600160a01b039091168152602001610155565b61016760095481565b610167610216366004610ab1565b60056020526000908152604090205481565b610149610533565b6102386105f5565b604051610155929190610d77565b6008546101679081565b61016760015481565b610188610267366004610dce565b61073a565b61016761027a366004610ab1565b61081a565b610167600b5481565b6101e7610296366004610e0b565b6006602052600090815260409020546001600160a01b031681565b6101886102bf366004610ab1565b61091d565b6101496102d2366004610ab1565b6001600160a01b031660009081526004602052604090205460ff1690565b6102f8610996565b6001600160a01b03821660009081526005602052604090205461035857600061032060085490565b9050610330600880546001019055565b600090815260066020526040902080546001600160a01b0319166001600160a01b0384161790555b6001600160a01b03821660009081526007602090815260408083204290556005909152902054610389908290610e3a565b6001600160a01b0390921660009081526005602052604090209190915550565b600380546103b690610e52565b80601f01602080910402602001604051908101604052809291908181526020018280546103e290610e52565b801561042f5780601f106104045761010080835404028352916020019161042f565b820191906000526020600020905b81548152906001019060200180831161041257829003601f168201915b505050505081565b61043f610996565b61044960006109f0565b565b3360009081526004602052604090205460ff166104af5760405162461bcd60e51b815260206004820152601d60248201527f43616c6c6572206973206e6f7420616c6c6f77656420746f206d696e7400000060448201526064015b60405180910390fd5b60405163225c6d1960e21b81526001600160a01b037f00000000000000000000000000000000000000000000000000000000000000001690638971b464906104fd9085908590600401610e8d565b600060405180830381600087803b15801561051757600080fd5b505af115801561052b573d6000803e3d6000fd5b505050505050565b6040516370a0823160e01b815233600482015260009081906001600160a01b037f000000000000000000000000000000000000000000000000000000000000000016906370a082319060240160206040518083038186803b15801561059757600080fd5b505afa1580156105ab573d6000803e3d6000fd5b505050506040513d601f19601f820116820180604052508101906105cf9190610eff565b905060008111806105ef57503360009081526004602052604090205460ff165b91505090565b606080600061060360085490565b905060008167ffffffffffffffff81111561062057610620610b2c565b604051908082528060200260200182016040528015610649578160200160208202803683370190505b50905060008267ffffffffffffffff81111561066757610667610b2c565b604051908082528060200260200182016040528015610690578160200160208202803683370190505b50905060005b8381101561072f5760008181526006602052604090205483516001600160a01b03909116908490839081106106cd576106cd610f18565b6001600160a01b03928316602091820292909201810191909152600083815260069091526040902054610700911661081a565b82828151811061071257610712610f18565b60209081029190910101528061072781610f2e565b915050610696565b509094909350915050565b3360009081526004602052604090205460ff166107995760405162461bcd60e51b815260206004820152601d60248201527f43616c6c6572206973206e6f7420616c6c6f77656420746f206d696e7400000060448201526064016104a6565b604051630c7fbe1d60e41b81526001600160a01b037f0000000000000000000000000000000000000000000000000000000000000000169063c7fbe1d0906107e5908490600401610f49565b600060405180830381600087803b1580156107ff57600080fd5b505af1158015610813573d6000803e3d6000fd5b5050505050565b6001600160a01b038116600090815260056020908152604080832054600954600790935290832054909183916108509042610f5c565b101561085f5750612710610902565b600b546001600160a01b0385166000908152600760205260409020546108859042610f5c565b111561089357506000610902565b6001600160a01b0384166000908152600760205260409020546108c490612710906108be9042610f5c565b90610a40565b90506108f1600f6108eb600a6108e560095486610a5390919063ffffffff16565b90610a5f565b90610a53565b90506108ff81612710610f5c565b90505b60006109146127106108eb8585610a40565b95945050505050565b610925610996565b6001600160a01b03811661098a5760405162461bcd60e51b815260206004820152602660248201527f4f776e61626c653a206e6577206f776e657220697320746865207a65726f206160448201526564647265737360d01b60648201526084016104a6565b610993816109f0565b50565b6000546001600160a01b031633146104495760405162461bcd60e51b815260206004820181905260248201527f4f776e61626c653a2063616c6c6572206973206e6f7420746865206f776e657260448201526064016104a6565b600080546001600160a01b038381166001600160a01b0319831681178455604051919092169283917f8be0079c531659141344cd1fd0a4f28419497f9722a3daafe3b4186f6b6457e09190a35050565b6000610a4c8284610f73565b9392505050565b6000610a4c8284610f92565b6000610a4c8284610f5c565b80356001600160a01b0381168114610a8257600080fd5b919050565b60008060408385031215610a9a57600080fd5b610aa383610a6b565b946020939093013593505050565b600060208284031215610ac357600080fd5b610a4c82610a6b565b6000815180845260005b81811015610af257602081850181015186830182015201610ad6565b81811115610b04576000602083870101525b50601f01601f19169290920160200192915050565b602081526000610a4c6020830184610acc565b634e487b7160e01b600052604160045260246000fd5b604051601f8201601f1916810167ffffffffffffffff81118282101715610b6b57610b6b610b2c565b604052919050565b600067ffffffffffffffff821115610b8d57610b8d610b2c565b5060051b60200190565b600082601f830112610ba857600080fd5b81356020610bbd610bb883610b73565b610b42565b82815260059290921b84018101918181019086841115610bdc57600080fd5b8286015b84811015610bfe57610bf181610a6b565b8352918301918301610be0565b509695505050505050565b6000806040808486031215610c1d57600080fd5b833567ffffffffffffffff80821115610c3557600080fd5b610c4187838801610b97565b9450602091508186013581811115610c5857600080fd5b8601601f8082018913610c6a57600080fd5b8135610c78610bb882610b73565b81815260059190911b8301850190858101908b831115610c9757600080fd5b8685015b83811015610d2057803587811115610cb35760008081fd5b8601603f81018e13610cc55760008081fd5b8881013588811115610cd957610cd9610b2c565b610cea818801601f19168b01610b42565b8181528f8c838501011115610cff5760008081fd5b818c84018c83013760009181018b0191909152845250918701918701610c9b565b5080985050505050505050509250929050565b600081518084526020808501945080840160005b83811015610d6c5781516001600160a01b031687529582019590820190600101610d47565b509495945050505050565b604081526000610d8a6040830185610d33565b82810360208481019190915284518083528582019282019060005b81811015610dc157845183529383019391830191600101610da5565b5090979650505050505050565b600060208284031215610de057600080fd5b813567ffffffffffffffff811115610df757600080fd5b610e0384828501610b97565b949350505050565b600060208284031215610e1d57600080fd5b5035919050565b634e487b7160e01b600052601160045260246000fd5b60008219821115610e4d57610e4d610e24565b500190565b600181811c90821680610e6657607f821691505b60208210811415610e8757634e487b7160e01b600052602260045260246000fd5b50919050565b604081526000610ea06040830185610d33565b6020838203818501528185518084528284019150828160051b85010183880160005b83811015610ef057601f19878403018552610ede838351610acc565b94860194925090850190600101610ec2565b50909998505050505050505050565b600060208284031215610f1157600080fd5b5051919050565b634e487b7160e01b600052603260045260246000fd5b6000600019821415610f4257610f42610e24565b5060010190565b602081526000610a4c6020830184610d33565b600082821015610f6e57610f6e610e24565b500390565b6000816000190483118215151615610f8d57610f8d610e24565b500290565b600082610faf57634e487b7160e01b600052601260045260246000fd5b50049056fea2646970667358221220c49d8386e89098a9ca480079a4d92cc2fb2f4f996391ba227b4b4045c29de96e64736f6c63430008090033",
  "linkReferences": {},
  "deployedLinkReferences": {}
}