{
  "_format": "hh-sol-artifact-1",
  "contractName": "Forum",
  "sourceName": "contracts/Forum.sol",
  "abi": [
    {
      "inputs": [
        {
          "internalType": "address[]",
          "name": "_moderators",
          "type": "address[]"
        },
        {
          "internalType": "address",
          "name": "_membershipNFT",
          "type": "address"
        },
        {
          "internalType": "string",
          "name": "_baseURI",
          "type": "string"
        }
      ],
      "stateMutability": "nonpayable",
      "type": "constructor"
    },
    {
      "anonymous": false,
      "inputs": [
        {
          "indexed": true,
          "internalType": "address",
          "name": "previousOwner",
          "type": "address"
        },
        {
          "indexed": true,
          "internalType": "address",
          "name": "newOwner",
          "type": "address"
        }
      ],
      "name": "OwnershipTransferred",
      "type": "event"
    },
    {
      "inputs": [],
      "name": "DAY",
      "outputs": [
        {
          "internalType": "uint256",
          "name": "",
          "type": "uint256"
        }
      ],
      "stateMutability": "view",
      "type": "function"
    },
    {
      "inputs": [],
      "name": "MONTH",
      "outputs": [
        {
          "internalType": "uint256",
          "name": "",
          "type": "uint256"
        }
      ],
      "stateMutability": "view",
      "type": "function"
    },
    {
      "inputs": [],
      "name": "TWODAY",
      "outputs": [
        {
          "internalType": "uint256",
          "name": "",
          "type": "uint256"
        }
      ],
      "stateMutability": "view",
      "type": "function"
    },
    {
      "inputs": [
        {
          "internalType": "uint256",
          "name": "",
          "type": "uint256"
        }
      ],
      "name": "_contributorByIndex",
      "outputs": [
        {
          "internalType": "address",
          "name": "",
          "type": "address"
        }
      ],
      "stateMutability": "view",
      "type": "function"
    },
    {
      "inputs": [],
      "name": "_contributorCounter",
      "outputs": [
        {
          "internalType": "uint256",
          "name": "_value",
          "type": "uint256"
        }
      ],
      "stateMutability": "view",
      "type": "function"
    },
    {
      "inputs": [
        {
          "internalType": "address",
          "name": "user",
          "type": "address"
        },
        {
          "internalType": "uint256",
          "name": "score",
          "type": "uint256"
        }
      ],
      "name": "addContribution",
      "outputs": [],
      "stateMutability": "nonpayable",
      "type": "function"
    },
    {
      "inputs": [],
      "name": "baseURI",
      "outputs": [
        {
          "internalType": "string",
          "name": "",
          "type": "string"
        }
      ],
      "stateMutability": "view",
      "type": "function"
    },
    {
      "inputs": [
        {
          "internalType": "address",
          "name": "",
          "type": "address"
        }
      ],
      "name": "contributionScore",
      "outputs": [
        {
          "internalType": "uint256",
          "name": "",
          "type": "uint256"
        }
      ],
      "stateMutability": "view",
      "type": "function"
    },
    {
      "inputs": [],
      "name": "dumyCall",
      "outputs": [],
      "stateMutability": "nonpayable",
      "type": "function"
    },
    {
      "inputs": [],
      "name": "getContributors",
      "outputs": [
        {
          "internalType": "address[]",
          "name": "",
          "type": "address[]"
        },
        {
          "internalType": "uint256[]",
          "name": "",
          "type": "uint256[]"
        }
      ],
      "stateMutability": "view",
      "type": "function"
    },
    {
      "inputs": [
        {
          "internalType": "address",
          "name": "user",
          "type": "address"
        }
      ],
      "name": "getScore",
      "outputs": [
        {
          "internalType": "uint256",
          "name": "",
          "type": "uint256"
        }
      ],
      "stateMutability": "view",
      "type": "function"
    },
    {
      "inputs": [],
      "name": "initialized",
      "outputs": [
        {
          "internalType": "bool",
          "name": "",
          "type": "bool"
        }
      ],
      "stateMutability": "view",
      "type": "function"
    },
    {
      "inputs": [
        {
          "internalType": "address",
          "name": "_moderator",
          "type": "address"
        }
      ],
      "name": "isModerator",
      "outputs": [
        {
          "internalType": "bool",
          "name": "",
          "type": "bool"
        }
      ],
      "stateMutability": "view",
      "type": "function"
    },
    {
      "inputs": [
        {
          "internalType": "address",
          "name": "",
          "type": "address"
        }
      ],
      "name": "lastInteractionUser",
      "outputs": [
        {
          "internalType": "uint256",
          "name": "",
          "type": "uint256"
        }
      ],
      "stateMutability": "view",
      "type": "function"
    },
    {
      "inputs": [],
      "name": "moderatorsCount",
      "outputs": [
        {
          "internalType": "uint256",
          "name": "",
          "type": "uint256"
        }
      ],
      "stateMutability": "view",
      "type": "function"
    },
    {
      "inputs": [],
      "name": "owner",
      "outputs": [
        {
          "internalType": "address",
          "name": "",
          "type": "address"
        }
      ],
      "stateMutability": "view",
      "type": "function"
    },
    {
      "inputs": [
        {
          "internalType": "address[]",
          "name": "users",
          "type": "address[]"
        },
        {
          "internalType": "string[]",
          "name": "tokenURIs",
          "type": "string[]"
        }
      ],
      "name": "provideMembership",
      "outputs": [],
      "stateMutability": "nonpayable",
      "type": "function"
    },
    {
      "inputs": [],
      "name": "renounceOwnership",
      "outputs": [],
      "stateMutability": "nonpayable",
      "type": "function"
    },
    {
      "inputs": [
        {
          "internalType": "address[]",
          "name": "users",
          "type": "address[]"
        }
      ],
      "name": "revokeMembership",
      "outputs": [],
      "stateMutability": "nonpayable",
      "type": "function"
    },
    {
      "inputs": [
        {
          "internalType": "address",
          "name": "newOwner",
          "type": "address"
        }
      ],
      "name": "transferOwnership",
      "outputs": [],
      "stateMutability": "nonpayable",
      "type": "function"
    }
  ],
  "bytecode": "0x60a06040526202a300600981905562015180600a556200002190600f62000273565b600b553480156200003157600080fd5b50604051620014bf380380620014bf833981016040819052620000549162000390565b6200005f3362000167565b60025460ff16151560011415620000bc5760405162461bcd60e51b815260206004820152601360248201527f616c726561647920696e697469616c697a656400000000000000000000000000604482015260640160405180910390fd5b82516001600160a01b03831660805260005b818110156200013957600160046000878481518110620000f257620000f262000483565b6020908102919091018101516001600160a01b03168252810191909152604001600020805460ff191691151591909117905580620001308162000499565b915050620000ce565b506002805460ff1916600117905581516200015c906003906020850190620001b7565b5050505050620004f4565b600080546001600160a01b038381166001600160a01b0319831681178455604051919092169283917f8be0079c531659141344cd1fd0a4f28419497f9722a3daafe3b4186f6b6457e09190a35050565b828054620001c590620004b7565b90600052602060002090601f016020900481019282620001e9576000855562000234565b82601f106200020457805160ff191683800117855562000234565b8280016001018555821562000234579182015b828111156200023457825182559160200191906001019062000217565b506200024292915062000246565b5090565b5b8082111562000242576000815560010162000247565b634e487b7160e01b600052601160045260246000fd5b60008160001904831182151516156200029057620002906200025d565b500290565b634e487b7160e01b600052604160045260246000fd5b604051601f8201601f191681016001600160401b0381118282101715620002d657620002d662000295565b604052919050565b80516001600160a01b0381168114620002f657600080fd5b919050565b600082601f8301126200030d57600080fd5b81516001600160401b0381111562000329576200032962000295565b60206200033f601f8301601f19168201620002ab565b82815285828487010111156200035457600080fd5b60005b838110156200037457858101830151828201840152820162000357565b83811115620003865760008385840101525b5095945050505050565b600080600060608486031215620003a657600080fd5b83516001600160401b0380821115620003be57600080fd5b818601915086601f830112620003d357600080fd5b8151602082821115620003ea57620003ea62000295565b8160051b620003fb828201620002ab565b928352848101820192828101908b8511156200041657600080fd5b958301955b848710156200043f576200042f87620002de565b825295830195908301906200041b565b985062000451915050888201620002de565b9550505060408601519150808211156200046a57600080fd5b506200047986828701620002fb565b9150509250925092565b634e487b7160e01b600052603260045260246000fd5b6000600019821415620004b057620004b06200025d565b5060010190565b600181811c90821680620004cc57607f821691505b60208210811415620004ee57634e487b7160e01b600052602260045260246000fd5b50919050565b608051610fa862000517600039600081816104b301526106db0152610fa86000f3fe608060405234801561001057600080fd5b506004361061012c5760003560e01c8063923231ff116100ad578063d47875d011610071578063d47875d014610259578063d5999a5c1461026c578063dd1dd5c314610275578063f2fde38b1461029e578063fa6f3936146102b157600080fd5b8063923231ff146101fd578063af157c191461021d578063b69cfa5114610233578063c5788d2b1461023d578063c7fbe1d01461024657600080fd5b8063715018a6116100f4578063715018a6146101b457806380f25fbd1461017d5780638971b464146101bc5780638da5cb5b146101cf5780638e22cdcd146101f457600080fd5b8063158ef93e1461013157806327cfe8561461015357806339ecacac1461016a5780636032cb161461017f5780636c0360eb1461019f575b600080fd5b60025461013e9060ff1681565b60405190151581526020015b60405180910390f35b61015c600a5481565b60405190815260200161014a565b61017d610178366004610a39565b6102dd565b005b61015c61018d366004610a63565b60076020526000908152604090205481565b6101a7610396565b60405161014a9190610acb565b61017d610424565b61017d6101ca366004610bbb565b610438565b6000546001600160a01b03165b6040516001600160a01b03909116815260200161014a565b61015c60095481565b61015c61020b366004610a63565b60056020526000908152604090205481565b610225610520565b60405161014a929190610d29565b60085461015c9081565b61015c60015481565b61017d610254366004610d80565b610665565b61015c610267366004610a63565b610745565b61015c600b5481565b6101dc610283366004610dbd565b6006602052600090815260409020546001600160a01b031681565b61017d6102ac366004610a63565b61086e565b61013e6102bf366004610a63565b6001600160a01b031660009081526004602052604090205460ff1690565b6102e56108e7565b6001600160a01b03821660009081526005602052604090205461034557600061030d60085490565b905061031d600880546001019055565b600090815260066020526040902080546001600160a01b0319166001600160a01b0384161790555b6001600160a01b03821660009081526007602090815260408083204290556005909152902054610376908290610dec565b6001600160a01b0390921660009081526005602052604090209190915550565b600380546103a390610e04565b80601f01602080910402602001604051908101604052809291908181526020018280546103cf90610e04565b801561041c5780601f106103f15761010080835404028352916020019161041c565b820191906000526020600020905b8154815290600101906020018083116103ff57829003601f168201915b505050505081565b61042c6108e7565b6104366000610941565b565b3360009081526004602052604090205460ff1661049c5760405162461bcd60e51b815260206004820152601d60248201527f43616c6c6572206973206e6f7420616c6c6f77656420746f206d696e7400000060448201526064015b60405180910390fd5b60405163225c6d1960e21b81526001600160a01b037f00000000000000000000000000000000000000000000000000000000000000001690638971b464906104ea9085908590600401610e3f565b600060405180830381600087803b15801561050457600080fd5b505af1158015610518573d6000803e3d6000fd5b505050505050565b606080600061052e60085490565b905060008167ffffffffffffffff81111561054b5761054b610ade565b604051908082528060200260200182016040528015610574578160200160208202803683370190505b50905060008267ffffffffffffffff81111561059257610592610ade565b6040519080825280602002602001820160405280156105bb578160200160208202803683370190505b50905060005b8381101561065a5760008181526006602052604090205483516001600160a01b03909116908490839081106105f8576105f8610eb1565b6001600160a01b0392831660209182029290920181019190915260008381526006909152604090205461062b9116610745565b82828151811061063d5761063d610eb1565b60209081029190910101528061065281610ec7565b9150506105c1565b509094909350915050565b3360009081526004602052604090205460ff166106c45760405162461bcd60e51b815260206004820152601d60248201527f43616c6c6572206973206e6f7420616c6c6f77656420746f206d696e740000006044820152606401610493565b604051630c7fbe1d60e41b81526001600160a01b037f0000000000000000000000000000000000000000000000000000000000000000169063c7fbe1d090610710908490600401610ee2565b600060405180830381600087803b15801561072a57600080fd5b505af115801561073e573d6000803e3d6000fd5b5050505050565b6001600160a01b0381166000908152600560209081526040808320546009546007909352908320549091839161077b9042610ef5565b101561078a5750612710610822565b600b546001600160a01b0385166000908152600760205260409020546107b09042610ef5565b11156107be57506001610822565b6001600160a01b0384166000908152600760205260409020546107ef90612710906107e99042610ef5565b90610991565b9050610811600f61080b600954846109a490919063ffffffff16565b906109a4565b905061081f81612710610ef5565b90505b6108536040518060400160405280600e81526020016d07072696e74696e67207374616d760941b81525042836109b0565b600061086561271061080b8585610991565b95945050505050565b6108766108e7565b6001600160a01b0381166108db5760405162461bcd60e51b815260206004820152602660248201527f4f776e61626c653a206e6577206f776e657220697320746865207a65726f206160448201526564647265737360d01b6064820152608401610493565b6108e481610941565b50565b6000546001600160a01b031633146104365760405162461bcd60e51b815260206004820181905260248201527f4f776e61626c653a2063616c6c6572206973206e6f7420746865206f776e65726044820152606401610493565b600080546001600160a01b038381166001600160a01b0319831681178455604051919092169283917f8be0079c531659141344cd1fd0a4f28419497f9722a3daafe3b4186f6b6457e09190a35050565b600061099d8284610f0c565b9392505050565b600061099d8284610f2b565b6109f78383836040516024016109c893929190610f4d565b60408051601f198184030181529190526020810180516001600160e01b031663969cdd0360e01b1790526109fc565b505050565b80516a636f6e736f6c652e6c6f67602083016000808483855afa5050505050565b80356001600160a01b0381168114610a3457600080fd5b919050565b60008060408385031215610a4c57600080fd5b610a5583610a1d565b946020939093013593505050565b600060208284031215610a7557600080fd5b61099d82610a1d565b6000815180845260005b81811015610aa457602081850181015186830182015201610a88565b81811115610ab6576000602083870101525b50601f01601f19169290920160200192915050565b60208152600061099d6020830184610a7e565b634e487b7160e01b600052604160045260246000fd5b604051601f8201601f1916810167ffffffffffffffff81118282101715610b1d57610b1d610ade565b604052919050565b600067ffffffffffffffff821115610b3f57610b3f610ade565b5060051b60200190565b600082601f830112610b5a57600080fd5b81356020610b6f610b6a83610b25565b610af4565b82815260059290921b84018101918181019086841115610b8e57600080fd5b8286015b84811015610bb057610ba381610a1d565b8352918301918301610b92565b509695505050505050565b6000806040808486031215610bcf57600080fd5b833567ffffffffffffffff80821115610be757600080fd5b610bf387838801610b49565b9450602091508186013581811115610c0a57600080fd5b8601601f8082018913610c1c57600080fd5b8135610c2a610b6a82610b25565b81815260059190911b8301850190858101908b831115610c4957600080fd5b8685015b83811015610cd257803587811115610c655760008081fd5b8601603f81018e13610c775760008081fd5b8881013588811115610c8b57610c8b610ade565b610c9c818801601f19168b01610af4565b8181528f8c838501011115610cb15760008081fd5b818c84018c83013760009181018b0191909152845250918701918701610c4d565b5080985050505050505050509250929050565b600081518084526020808501945080840160005b83811015610d1e5781516001600160a01b031687529582019590820190600101610cf9565b509495945050505050565b604081526000610d3c6040830185610ce5565b82810360208481019190915284518083528582019282019060005b81811015610d7357845183529383019391830191600101610d57565b5090979650505050505050565b600060208284031215610d9257600080fd5b813567ffffffffffffffff811115610da957600080fd5b610db584828501610b49565b949350505050565b600060208284031215610dcf57600080fd5b5035919050565b634e487b7160e01b600052601160045260246000fd5b60008219821115610dff57610dff610dd6565b500190565b600181811c90821680610e1857607f821691505b60208210811415610e3957634e487b7160e01b600052602260045260246000fd5b50919050565b604081526000610e526040830185610ce5565b6020838203818501528185518084528284019150828160051b85010183880160005b83811015610ea257601f19878403018552610e90838351610a7e565b94860194925090850190600101610e74565b50909998505050505050505050565b634e487b7160e01b600052603260045260246000fd5b6000600019821415610edb57610edb610dd6565b5060010190565b60208152600061099d6020830184610ce5565b600082821015610f0757610f07610dd6565b500390565b6000816000190483118215151615610f2657610f26610dd6565b500290565b600082610f4857634e487b7160e01b600052601260045260246000fd5b500490565b606081526000610f606060830186610a7e565b6020830194909452506040015291905056fea2646970667358221220cad21b09ef8617cdb9b19c5afca8f91624a0d64a493d6680ca160a36fdf89f5664736f6c63430008090033",
  "linkReferences": {},
  "deployedLinkReferences": {}
}