{
  "_format": "hh-sol-artifact-1",
  "contractName": "Forum",
  "sourceName": "contracts/Forum.sol",
  "abi": [
    {
      "inputs": [
        {
          "internalType": "address[]",
          "name": "_moderators",
          "type": "address[]"
        },
        {
          "internalType": "address",
          "name": "_membershipNFT",
          "type": "address"
        },
        {
          "internalType": "string",
          "name": "_baseURI",
          "type": "string"
        }
      ],
      "stateMutability": "nonpayable",
      "type": "constructor"
    },
    {
      "anonymous": false,
      "inputs": [
        {
          "indexed": true,
          "internalType": "address",
          "name": "previousOwner",
          "type": "address"
        },
        {
          "indexed": true,
          "internalType": "address",
          "name": "newOwner",
          "type": "address"
        }
      ],
      "name": "OwnershipTransferred",
      "type": "event"
    },
    {
      "inputs": [
        {
          "internalType": "uint256",
          "name": "",
          "type": "uint256"
        }
      ],
      "name": "_contributorByIndex",
      "outputs": [
        {
          "internalType": "address",
          "name": "",
          "type": "address"
        }
      ],
      "stateMutability": "view",
      "type": "function"
    },
    {
      "inputs": [],
      "name": "_contributorCounter",
      "outputs": [
        {
          "internalType": "uint256",
          "name": "_value",
          "type": "uint256"
        }
      ],
      "stateMutability": "view",
      "type": "function"
    },
    {
      "inputs": [
        {
          "internalType": "address",
          "name": "user",
          "type": "address"
        },
        {
          "internalType": "uint256",
          "name": "score",
          "type": "uint256"
        }
      ],
      "name": "addContribution",
      "outputs": [],
      "stateMutability": "nonpayable",
      "type": "function"
    },
    {
      "inputs": [],
      "name": "baseURI",
      "outputs": [
        {
          "internalType": "string",
          "name": "",
          "type": "string"
        }
      ],
      "stateMutability": "view",
      "type": "function"
    },
    {
      "inputs": [
        {
          "internalType": "address",
          "name": "",
          "type": "address"
        }
      ],
      "name": "contributionScore",
      "outputs": [
        {
          "internalType": "uint256",
          "name": "",
          "type": "uint256"
        }
      ],
      "stateMutability": "view",
      "type": "function"
    },
    {
      "inputs": [],
      "name": "getContributors",
      "outputs": [
        {
          "internalType": "address[]",
          "name": "",
          "type": "address[]"
        },
        {
          "internalType": "uint256[]",
          "name": "",
          "type": "uint256[]"
        }
      ],
      "stateMutability": "view",
      "type": "function"
    },
    {
      "inputs": [],
      "name": "initialized",
      "outputs": [
        {
          "internalType": "bool",
          "name": "",
          "type": "bool"
        }
      ],
      "stateMutability": "view",
      "type": "function"
    },
    {
      "inputs": [
        {
          "internalType": "address",
          "name": "_moderator",
          "type": "address"
        }
      ],
      "name": "isModerator",
      "outputs": [
        {
          "internalType": "bool",
          "name": "",
          "type": "bool"
        }
      ],
      "stateMutability": "view",
      "type": "function"
    },
    {
      "inputs": [],
      "name": "moderatorsCount",
      "outputs": [
        {
          "internalType": "uint256",
          "name": "",
          "type": "uint256"
        }
      ],
      "stateMutability": "view",
      "type": "function"
    },
    {
      "inputs": [],
      "name": "owner",
      "outputs": [
        {
          "internalType": "address",
          "name": "",
          "type": "address"
        }
      ],
      "stateMutability": "view",
      "type": "function"
    },
    {
      "inputs": [
        {
          "internalType": "address[]",
          "name": "users",
          "type": "address[]"
        },
        {
          "internalType": "string[]",
          "name": "tokenURIs",
          "type": "string[]"
        }
      ],
      "name": "provideMembership",
      "outputs": [],
      "stateMutability": "nonpayable",
      "type": "function"
    },
    {
      "inputs": [],
      "name": "renounceOwnership",
      "outputs": [],
      "stateMutability": "nonpayable",
      "type": "function"
    },
    {
      "inputs": [
        {
          "internalType": "address[]",
          "name": "users",
          "type": "address[]"
        }
      ],
      "name": "revokeMembership",
      "outputs": [],
      "stateMutability": "nonpayable",
      "type": "function"
    },
    {
      "inputs": [
        {
          "internalType": "address",
          "name": "newOwner",
          "type": "address"
        }
      ],
      "name": "transferOwnership",
      "outputs": [],
      "stateMutability": "nonpayable",
      "type": "function"
    }
  ],
  "bytecode": "0x60a06040523480156200001157600080fd5b50604051620011af380380620011af833981016040819052620000349162000338565b6200003f3362000147565b60025460ff161515600114156200009c5760405162461bcd60e51b815260206004820152601360248201527f616c726561647920696e697469616c697a656400000000000000000000000000604482015260640160405180910390fd5b82516001600160a01b03831660805260005b818110156200011957600160046000878481518110620000d257620000d26200042b565b6020908102919091018101516001600160a01b03168252810191909152604001600020805460ff191691151591909117905580620001108162000441565b915050620000ae565b506002805460ff1916600117905581516200013c90600390602085019062000197565b5050505050620004a8565b600080546001600160a01b038381166001600160a01b0319831681178455604051919092169283917f8be0079c531659141344cd1fd0a4f28419497f9722a3daafe3b4186f6b6457e09190a35050565b828054620001a5906200046b565b90600052602060002090601f016020900481019282620001c9576000855562000214565b82601f10620001e457805160ff191683800117855562000214565b8280016001018555821562000214579182015b8281111562000214578251825591602001919060010190620001f7565b506200022292915062000226565b5090565b5b8082111562000222576000815560010162000227565b634e487b7160e01b600052604160045260246000fd5b604051601f8201601f191681016001600160401b03811182821017156200027e576200027e6200023d565b604052919050565b80516001600160a01b03811681146200029e57600080fd5b919050565b600082601f830112620002b557600080fd5b81516001600160401b03811115620002d157620002d16200023d565b6020620002e7601f8301601f1916820162000253565b8281528582848701011115620002fc57600080fd5b60005b838110156200031c578581018301518282018401528201620002ff565b838111156200032e5760008385840101525b5095945050505050565b6000806000606084860312156200034e57600080fd5b83516001600160401b03808211156200036657600080fd5b818601915086601f8301126200037b57600080fd5b81516020828211156200039257620003926200023d565b8160051b620003a382820162000253565b928352848101820192828101908b851115620003be57600080fd5b958301955b84871015620003e757620003d78762000286565b82529583019590830190620003c3565b9850620003f991505088820162000286565b9550505060408601519150808211156200041257600080fd5b506200042186828701620002a3565b9150509250925092565b634e487b7160e01b600052603260045260246000fd5b60006000198214156200046457634e487b7160e01b600052601160045260246000fd5b5060010190565b600181811c908216806200048057607f821691505b60208210811415620004a257634e487b7160e01b600052602260045260246000fd5b50919050565b608051610ce4620004cb6000396000818161041601526106420152610ce46000f3fe608060405234801561001057600080fd5b50600436106100ea5760003560e01c8063af157c191161008c578063c7fbe1d011610066578063c7fbe1d0146101d2578063dd1dd5c3146101e5578063f2fde38b1461020e578063fa6f39361461022157600080fd5b8063af157c19146101a9578063b69cfa51146101bf578063c5788d2b146101c957600080fd5b8063715018a6116100c8578063715018a61461013b5780638971b464146101435780638da5cb5b14610156578063923231ff1461017b57600080fd5b8063158ef93e146100ef57806339ecacac146101115780636c0360eb14610126575b600080fd5b6002546100fc9060ff1681565b60405190151581526020015b60405180910390f35b61012461011f3660046107eb565b61024d565b005b61012e6102f9565b6040516101089190610862565b610124610387565b610124610151366004610959565b61039b565b6000546001600160a01b03165b6040516001600160a01b039091168152602001610108565b61019b610189366004610a83565b60056020526000908152604090205481565b604051908152602001610108565b6101b1610483565b604051610108929190610ae2565b60075461019b9081565b61019b60015481565b6101246101e0366004610b39565b6105cc565b6101636101f3366004610b76565b6006602052600090815260409020546001600160a01b031681565b61012461021c366004610a83565b6106ac565b6100fc61022f366004610a83565b6001600160a01b031660009081526004602052604090205460ff1690565b610255610725565b6001600160a01b0382166000908152600560205260409020546102b557600061027d60075490565b905061028d600780546001019055565b600090815260066020526040902080546001600160a01b0319166001600160a01b0384161790555b6001600160a01b0382166000908152600560205260409020546102d9908290610ba5565b6001600160a01b0390921660009081526005602052604090209190915550565b6003805461030690610bbd565b80601f016020809104026020016040519081016040528092919081815260200182805461033290610bbd565b801561037f5780601f106103545761010080835404028352916020019161037f565b820191906000526020600020905b81548152906001019060200180831161036257829003601f168201915b505050505081565b61038f610725565b610399600061077f565b565b3360009081526004602052604090205460ff166103ff5760405162461bcd60e51b815260206004820152601d60248201527f43616c6c6572206973206e6f7420616c6c6f77656420746f206d696e7400000060448201526064015b60405180910390fd5b60405163225c6d1960e21b81526001600160a01b037f00000000000000000000000000000000000000000000000000000000000000001690638971b4649061044d9085908590600401610bf8565b600060405180830381600087803b15801561046757600080fd5b505af115801561047b573d6000803e3d6000fd5b505050505050565b606080600061049160075490565b905060008167ffffffffffffffff8111156104ae576104ae61087c565b6040519080825280602002602001820160405280156104d7578160200160208202803683370190505b50905060008267ffffffffffffffff8111156104f5576104f561087c565b60405190808252806020026020018201604052801561051e578160200160208202803683370190505b50905060005b838110156105c15760008181526006602052604090205483516001600160a01b039091169084908390811061055b5761055b610c6a565b6001600160a01b0392831660209182029290920181019190915260008381526006825260408082205490931681526005909152205482518390839081106105a4576105a4610c6a565b6020908102919091010152806105b981610c80565b915050610524565b509094909350915050565b3360009081526004602052604090205460ff1661062b5760405162461bcd60e51b815260206004820152601d60248201527f43616c6c6572206973206e6f7420616c6c6f77656420746f206d696e7400000060448201526064016103f6565b604051630c7fbe1d60e41b81526001600160a01b037f0000000000000000000000000000000000000000000000000000000000000000169063c7fbe1d090610677908490600401610c9b565b600060405180830381600087803b15801561069157600080fd5b505af11580156106a5573d6000803e3d6000fd5b5050505050565b6106b4610725565b6001600160a01b0381166107195760405162461bcd60e51b815260206004820152602660248201527f4f776e61626c653a206e6577206f776e657220697320746865207a65726f206160448201526564647265737360d01b60648201526084016103f6565b6107228161077f565b50565b6000546001600160a01b031633146103995760405162461bcd60e51b815260206004820181905260248201527f4f776e61626c653a2063616c6c6572206973206e6f7420746865206f776e657260448201526064016103f6565b600080546001600160a01b038381166001600160a01b0319831681178455604051919092169283917f8be0079c531659141344cd1fd0a4f28419497f9722a3daafe3b4186f6b6457e09190a35050565b80356001600160a01b03811681146107e657600080fd5b919050565b600080604083850312156107fe57600080fd5b610807836107cf565b946020939093013593505050565b6000815180845260005b8181101561083b5760208185018101518683018201520161081f565b8181111561084d576000602083870101525b50601f01601f19169290920160200192915050565b6020815260006108756020830184610815565b9392505050565b634e487b7160e01b600052604160045260246000fd5b604051601f8201601f1916810167ffffffffffffffff811182821017156108bb576108bb61087c565b604052919050565b600067ffffffffffffffff8211156108dd576108dd61087c565b5060051b60200190565b600082601f8301126108f857600080fd5b8135602061090d610908836108c3565b610892565b82815260059290921b8401810191818101908684111561092c57600080fd5b8286015b8481101561094e57610941816107cf565b8352918301918301610930565b509695505050505050565b600080604080848603121561096d57600080fd5b833567ffffffffffffffff8082111561098557600080fd5b610991878388016108e7565b94506020915081860135818111156109a857600080fd5b8601601f80820189136109ba57600080fd5b81356109c8610908826108c3565b81815260059190911b8301850190858101908b8311156109e757600080fd5b8685015b83811015610a7057803587811115610a035760008081fd5b8601603f81018e13610a155760008081fd5b8881013588811115610a2957610a2961087c565b610a3a818801601f19168b01610892565b8181528f8c838501011115610a4f5760008081fd5b818c84018c83013760009181018b01919091528452509187019187016109eb565b5080985050505050505050509250929050565b600060208284031215610a9557600080fd5b610875826107cf565b600081518084526020808501945080840160005b83811015610ad75781516001600160a01b031687529582019590820190600101610ab2565b509495945050505050565b604081526000610af56040830185610a9e565b82810360208481019190915284518083528582019282019060005b81811015610b2c57845183529383019391830191600101610b10565b5090979650505050505050565b600060208284031215610b4b57600080fd5b813567ffffffffffffffff811115610b6257600080fd5b610b6e848285016108e7565b949350505050565b600060208284031215610b8857600080fd5b5035919050565b634e487b7160e01b600052601160045260246000fd5b60008219821115610bb857610bb8610b8f565b500190565b600181811c90821680610bd157607f821691505b60208210811415610bf257634e487b7160e01b600052602260045260246000fd5b50919050565b604081526000610c0b6040830185610a9e565b6020838203818501528185518084528284019150828160051b85010183880160005b83811015610c5b57601f19878403018552610c49838351610815565b94860194925090850190600101610c2d565b50909998505050505050505050565b634e487b7160e01b600052603260045260246000fd5b6000600019821415610c9457610c94610b8f565b5060010190565b6020815260006108756020830184610a9e56fea2646970667358221220dbaa995793ae9181955f569ff34ecea8defd40209c1c05af9018c5af50d2691d64736f6c63430008090033",
  "linkReferences": {},
  "deployedLinkReferences": {}
}