{
  "_format": "hh-sol-artifact-1",
  "contractName": "Vault",
  "sourceName": "contracts/Vault.sol",
  "abi": [
    {
      "inputs": [
        {
          "internalType": "uint256",
          "name": "_initialBalanceOfBadges",
          "type": "uint256"
        }
      ],
      "stateMutability": "nonpayable",
      "type": "constructor"
    },
    {
      "anonymous": false,
      "inputs": [
        {
          "indexed": false,
          "internalType": "address",
          "name": "",
          "type": "address"
        }
      ],
      "name": "ForumCreated",
      "type": "event"
    },
    {
      "anonymous": false,
      "inputs": [
        {
          "indexed": true,
          "internalType": "address",
          "name": "previousOwner",
          "type": "address"
        },
        {
          "indexed": true,
          "internalType": "address",
          "name": "newOwner",
          "type": "address"
        }
      ],
      "name": "OwnershipTransferred",
      "type": "event"
    },
    {
      "inputs": [],
      "name": "BadgesAddr",
      "outputs": [
        {
          "internalType": "address",
          "name": "",
          "type": "address"
        }
      ],
      "stateMutability": "view",
      "type": "function"
    },
    {
      "inputs": [
        {
          "internalType": "uint256",
          "name": "",
          "type": "uint256"
        }
      ],
      "name": "MembershipAddresses",
      "outputs": [
        {
          "internalType": "address",
          "name": "",
          "type": "address"
        }
      ],
      "stateMutability": "view",
      "type": "function"
    },
    {
      "inputs": [
        {
          "internalType": "address",
          "name": "",
          "type": "address"
        }
      ],
      "name": "addressForumCounter",
      "outputs": [
        {
          "internalType": "uint256",
          "name": "_value",
          "type": "uint256"
        }
      ],
      "stateMutability": "view",
      "type": "function"
    },
    {
      "inputs": [
        {
          "internalType": "address",
          "name": "",
          "type": "address"
        }
      ],
      "name": "balanceOfForum",
      "outputs": [
        {
          "internalType": "uint256",
          "name": "",
          "type": "uint256"
        }
      ],
      "stateMutability": "view",
      "type": "function"
    },
    {
      "inputs": [
        {
          "internalType": "uint256",
          "name": "from_id",
          "type": "uint256"
        },
        {
          "internalType": "uint256",
          "name": "to_id",
          "type": "uint256"
        }
      ],
      "name": "claimUpgrade",
      "outputs": [],
      "stateMutability": "nonpayable",
      "type": "function"
    },
    {
      "inputs": [
        {
          "internalType": "string",
          "name": "name",
          "type": "string"
        },
        {
          "internalType": "address[]",
          "name": "_moderators",
          "type": "address[]"
        },
        {
          "internalType": "string",
          "name": "tokenURI",
          "type": "string"
        }
      ],
      "name": "createForum",
      "outputs": [],
      "stateMutability": "nonpayable",
      "type": "function"
    },
    {
      "inputs": [
        {
          "internalType": "uint256",
          "name": "",
          "type": "uint256"
        }
      ],
      "name": "forumAddresses",
      "outputs": [
        {
          "internalType": "address",
          "name": "",
          "type": "address"
        }
      ],
      "stateMutability": "view",
      "type": "function"
    },
    {
      "inputs": [],
      "name": "forumCounter",
      "outputs": [
        {
          "internalType": "uint256",
          "name": "_value",
          "type": "uint256"
        }
      ],
      "stateMutability": "view",
      "type": "function"
    },
    {
      "inputs": [
        {
          "internalType": "address",
          "name": "",
          "type": "address"
        },
        {
          "internalType": "uint256",
          "name": "",
          "type": "uint256"
        }
      ],
      "name": "forumsOfAddress",
      "outputs": [
        {
          "internalType": "address",
          "name": "",
          "type": "address"
        }
      ],
      "stateMutability": "view",
      "type": "function"
    },
    {
      "inputs": [
        {
          "internalType": "address",
          "name": "user",
          "type": "address"
        }
      ],
      "name": "getForumsForAddress",
      "outputs": [
        {
          "internalType": "address",
          "name": "",
          "type": "address"
        },
        {
          "internalType": "address",
          "name": "",
          "type": "address"
        },
        {
          "internalType": "address",
          "name": "",
          "type": "address"
        }
      ],
      "stateMutability": "view",
      "type": "function"
    },
    {
      "inputs": [
        {
          "internalType": "address",
          "name": "user",
          "type": "address"
        },
        {
          "internalType": "uint256",
          "name": "qty",
          "type": "uint256"
        },
        {
          "internalType": "address",
          "name": "forum",
          "type": "address"
        }
      ],
      "name": "giveBronze",
      "outputs": [],
      "stateMutability": "nonpayable",
      "type": "function"
    },
    {
      "inputs": [
        {
          "internalType": "address",
          "name": "user",
          "type": "address"
        },
        {
          "internalType": "uint256",
          "name": "qty",
          "type": "uint256"
        },
        {
          "internalType": "address",
          "name": "forum",
          "type": "address"
        }
      ],
      "name": "giveGold",
      "outputs": [],
      "stateMutability": "nonpayable",
      "type": "function"
    },
    {
      "inputs": [
        {
          "internalType": "address",
          "name": "user",
          "type": "address"
        },
        {
          "internalType": "uint256",
          "name": "qty",
          "type": "uint256"
        },
        {
          "internalType": "address",
          "name": "forum",
          "type": "address"
        }
      ],
      "name": "giveSilver",
      "outputs": [],
      "stateMutability": "nonpayable",
      "type": "function"
    },
    {
      "inputs": [],
      "name": "initialBalanceOfBadges",
      "outputs": [
        {
          "internalType": "uint256",
          "name": "",
          "type": "uint256"
        }
      ],
      "stateMutability": "view",
      "type": "function"
    },
    {
      "inputs": [
        {
          "internalType": "address",
          "name": "",
          "type": "address"
        }
      ],
      "name": "isForum",
      "outputs": [
        {
          "internalType": "bool",
          "name": "",
          "type": "bool"
        }
      ],
      "stateMutability": "view",
      "type": "function"
    },
    {
      "inputs": [
        {
          "internalType": "address",
          "name": "",
          "type": "address"
        }
      ],
      "name": "lastUpdatedBalance",
      "outputs": [
        {
          "internalType": "uint256",
          "name": "",
          "type": "uint256"
        }
      ],
      "stateMutability": "view",
      "type": "function"
    },
    {
      "inputs": [
        {
          "internalType": "address",
          "name": "",
          "type": "address"
        }
      ],
      "name": "lastUpdatedScores",
      "outputs": [
        {
          "internalType": "uint256",
          "name": "",
          "type": "uint256"
        }
      ],
      "stateMutability": "view",
      "type": "function"
    },
    {
      "inputs": [
        {
          "internalType": "uint256",
          "name": "",
          "type": "uint256"
        }
      ],
      "name": "nftURIs",
      "outputs": [
        {
          "internalType": "string",
          "name": "",
          "type": "string"
        }
      ],
      "stateMutability": "view",
      "type": "function"
    },
    {
      "inputs": [],
      "name": "owner",
      "outputs": [
        {
          "internalType": "address",
          "name": "",
          "type": "address"
        }
      ],
      "stateMutability": "view",
      "type": "function"
    },
    {
      "inputs": [],
      "name": "renounceOwnership",
      "outputs": [],
      "stateMutability": "nonpayable",
      "type": "function"
    },
    {
      "inputs": [
        {
          "internalType": "address",
          "name": "_addr",
          "type": "address"
        }
      ],
      "name": "setBadgesAddr",
      "outputs": [],
      "stateMutability": "nonpayable",
      "type": "function"
    },
    {
      "inputs": [
        {
          "internalType": "address",
          "name": "newOwner",
          "type": "address"
        }
      ],
      "name": "transferOwnership",
      "outputs": [],
      "stateMutability": "nonpayable",
      "type": "function"
    }
  ],
  "bytecode": "0x6080604052600360065562278d00600e5562015180600f5534801561002357600080fd5b506040516200575338038062005753833981016040819052610044916100a5565b61004d33610055565b6007556100be565b600080546001600160a01b038381166001600160a01b0319831681178455604051919092169283917f8be0079c531659141344cd1fd0a4f28419497f9722a3daafe3b4186f6b6457e09190a35050565b6000602082840312156100b757600080fd5b5051919050565b61568580620000ce6000396000f3fe60806040523480156200001157600080fd5b50600436106200015d5760003560e01c80639bf7225e11620000c7578063c3b9c92d1162000086578063c3b9c92d1462000370578063d1249cff14620003a7578063e7c4f6b214620003be578063f2fde38b14620003f5578063fa70bf99146200040c578063fe2f781b146200042f57600080fd5b80639bf7225e1462000286578063a459787c14620002a9578063a8ad2b2114620002cc578063ba73f1ae14620002d7578063c095009f14620002ee57600080fd5b8063715018a61162000120578063715018a6146200021e5780637ab2b70014620002285780638da5cb5b146200023c5780639339027d146200024e57806395baef4a146200026557806396e2b403146200027c57600080fd5b806331a65acf14620001625780633d51633114620001965780634132ec8d14620001af5780634dafb8ac14620001d55780635a532aff14620001ec575b600080fd5b6200017962000173366004620014d6565b62000446565b6040516001600160a01b0390911681526020015b60405180910390f35b620001ad620001a7366004620015ce565b62000471565b005b620001c6620001c0366004620014d6565b62000800565b6040516200018d919062001723565b620001ad620001e63660046200173f565b620008b5565b6200020f620001fd3660046200173f565b600c6020526000908152604090205481565b6040519081526020016200018d565b620001ad620008e1565b60025462000179906001600160a01b031681565b6000546001600160a01b031662000179565b620001ad6200025f3660046200175d565b620008f9565b620001ad6200027636600462001780565b62000ab3565b6200020f60075481565b6200020f620002973660046200173f565b600a6020526000908152604090205481565b6200020f620002ba3660046200173f565b60086020526000908152604090205481565b6001546200020f9081565b62000179620002e8366004620014d6565b62000dc9565b62000345620002ff3660046200173f565b6001600160a01b039081166000908152600b6020908152604080832083805290915280822054600183528183205460028452919092205491831693908316929190911690565b604080516001600160a01b03948516815292841660208401529216918101919091526060016200018d565b6200017962000381366004620017c1565b600b6020908152600092835260408084209091529082529020546001600160a01b031681565b620001ad620003b836600462001780565b62000dda565b620003e4620003cf3660046200173f565b600d6020526000908152604090205460ff1681565b60405190151581526020016200018d565b620001ad620004063660046200173f565b62000fba565b6200020f6200041d3660046200173f565b60096020526000908152604090205481565b620001ad6200044036600462001780565b62001039565b600381815481106200045757600080fd5b6000918252602090912001546001600160a01b0316905081565b815160006200048282600162001804565b67ffffffffffffffff8111156200049d576200049d620014f0565b604051908082528060200260200182016040528015620004c7578160200160208202803683370190505b50905060015b620004da83600162001804565b8110156200054d5784620004f06001836200181f565b8151811062000503576200050362001839565b602002602001015182828151811062000520576200052062001839565b6001600160a01b03909216602092830291909101909101528062000544816200184f565b915050620004cd565b50338160008151811062000565576200056562001839565b60200260200101906001600160a01b031690816001600160a01b03168152505060008586604051620005979062001414565b620005a49291906200186d565b604051809103906000f080158015620005c1573d6000803e3d6000fd5b5090506000828286604051620005d79062001422565b620005e5939291906200189f565b604051809103906000f08015801562000602573d6000803e3d6000fd5b506003805460018181019092557fc2575a0e9e593c00f959f8c92f12db2869c3395a3b0502d05e2516446f71f85b0180546001600160a01b038087166001600160a01b031992831617909255600480548085019091557f8a35acfbc15ff81a39ae7d344fd709f28e8600b4aa8c65c6b64bfe7fe36bd19b018054928516929091169190911790556005805491820181556000528651919250620006cf917f036b6384b5eca791c62761152d0c79bb0604c104a5fb6f4eb0703f3154bb3db090910190602088019062001430565b5060405163f2fde38b60e01b81526001600160a01b03828116600483015283169063f2fde38b90602401600060405180830381600087803b1580156200071457600080fd5b505af115801562000729573d6000803e3d6000fd5b505050506200073c600180546001019055565b60005b6200074c85600162001804565b81101562000791576200077c8482815181106200076d576200076d62001839565b6020026020010151836200121a565b8062000788816200184f565b9150506200073f565b506007546001600160a01b038216600081815260086020908152604080832094909455600d815290839020805460ff1916600117905591519081527f6f9535f6c8a4252f81158b92ec563f75929f25d4f516bbdea9a3519b2f503e93910160405180910390a150505050505050565b600581815481106200081157600080fd5b9060005260206000200160009150905080546200082e9062001913565b80601f01602080910402602001604051908101604052809291908181526020018280546200085c9062001913565b8015620008ad5780601f106200088157610100808354040283529160200191620008ad565b820191906000526020600020905b8154815290600101906020018083116200088f57829003601f168201915b505050505081565b620008bf62001368565b600280546001600160a01b0319166001600160a01b0392909216919091179055565b620008eb62001368565b620008f76000620013c4565b565b6200090682600162001804565b81146200095a5760405162461bcd60e51b815260206004820152601d60248201527f63616e206f6e6c792075706772616465206f6e65206c6576656c20757000000060448201526064015b60405180910390fd5b600254604051627eeac760e11b8152336004820152602481018490526005916001600160a01b03169062fdd58e90604401602060405180830381600087803b158015620009a657600080fd5b505af1158015620009bb573d6000803e3d6000fd5b505050506040513d601f19601f82011682018060405250810190620009e1919062001950565b1162000a425760405162461bcd60e51b815260206004820152602960248201527f5573657220646f65736e74206861766520656e6f7567682062616467657320746044820152686f207570677261646560b81b606482015260840162000951565b6002546040516313f86b0560e21b815260048101849052602481018390523360448201526001600160a01b0390911690634fe1ac1490606401600060405180830381600087803b15801562000a9657600080fd5b505af115801562000aab573d6000803e3d6000fd5b505050505050565b336000908152600c60205260408120541162000ae35760405162461bcd60e51b815260040162000951906200196a565b600e546001600160a01b0382166000908152600960205260409020548291849162000b0f90426200181f565b111562000b41576001600160a01b03821660009081526009602090815260408083204290556007546008909252909120555b6001600160a01b0382166000908152600d602052604090205460ff1662000b7c5760405162461bcd60e51b8152600401620009519062001994565b6001600160a01b03821660009081526008602052604090205481111562000bb75760405162461bcd60e51b81526004016200095190620019c1565b600254604051630ab714fb60e11b81526001600160a01b03878116600483015260006024830152604482018790529091169063156e29f690606401600060405180830381600087803b15801562000c0d57600080fd5b505af115801562000c22573d6000803e3d6000fd5b5050505083600162000c35919062001a0b565b6001600160a01b03841660009081526008602052604090205462000c5a91906200181f565b6001600160a01b03841660008181526008602052604090819020929092559051637d379c9b60e11b815233600482015263fa6f39369060240160206040518083038186803b15801562000cac57600080fd5b505afa15801562000cc1573d6000803e3d6000fd5b505050506040513d601f19601f8201168201806040525081019062000ce7919062001a2d565b62000d455760405162461bcd60e51b815260206004820152602760248201527f63616c6c6572206973206e6f742061206d6f64657261746f72206f66207468696044820152667320666f72756d60c81b606482015260840162000951565b6001600160a01b0383166339ecacac8662000d6287600562001a0b565b6040516001600160e01b031960e085901b1681526001600160a01b0390921660048301526024820152604401600060405180830381600087803b15801562000da957600080fd5b505af115801562000dbe573d6000803e3d6000fd5b505050505050505050565b600481815481106200045757600080fd5b336000908152600c60205260408120541162000e0a5760405162461bcd60e51b815260040162000951906200196a565b8062000e1883600262001a0b565b600e546001600160a01b03831660009081526009602052604090205462000e4090426200181f565b111562000e72576001600160a01b03821660009081526009602090815260408083204290556007546008909252909120555b6001600160a01b0382166000908152600d602052604090205460ff1662000ead5760405162461bcd60e51b8152600401620009519062001994565b6001600160a01b03821660009081526008602052604090205481111562000ee85760405162461bcd60e51b81526004016200095190620019c1565b600254604051630ab714fb60e11b81526001600160a01b03878116600483015260016024830152604482018790529091169063156e29f690606401600060405180830381600087803b15801562000f3e57600080fd5b505af115801562000f53573d6000803e3d6000fd5b5050505083600262000f66919062001a0b565b6001600160a01b03841660009081526008602052604090205462000f8b91906200181f565b6001600160a01b0384166000818152600860205260409020919091556339ecacac8662000d6287600a62001a0b565b62000fc462001368565b6001600160a01b0381166200102b5760405162461bcd60e51b815260206004820152602660248201527f4f776e61626c653a206e6577206f776e657220697320746865207a65726f206160448201526564647265737360d01b606482015260840162000951565b6200103681620013c4565b50565b336000908152600c602052604081205411620010695760405162461bcd60e51b815260040162000951906200196a565b806200107783600362001a0b565b600e546001600160a01b0383166000908152600960205260409020546200109f90426200181f565b1115620010d1576001600160a01b03821660009081526009602090815260408083204290556007546008909252909120555b6001600160a01b0382166000908152600d602052604090205460ff166200110c5760405162461bcd60e51b8152600401620009519062001994565b6001600160a01b038216600090815260086020526040902054811115620011475760405162461bcd60e51b81526004016200095190620019c1565b60028054604051630ab714fb60e11b81526001600160a01b03888116600483015260248201939093526044810187905291169063156e29f690606401600060405180830381600087803b1580156200119e57600080fd5b505af1158015620011b3573d6000803e3d6000fd5b50505050836003620011c6919062001a0b565b6001600160a01b038416600090815260086020526040902054620011eb91906200181f565b6001600160a01b0384166000818152600860205260409020919091556339ecacac8662000d6287600f62001a0b565b6006546001600160a01b0383166000908152600c602052604090205410620012ab5760405162461bcd60e51b815260206004820152603860248201527f4f6e65206f66207468652061646472657373657320686176652072656163686560448201527f6420746865206d6178696d756d206c696d6974206f6620330000000000000000606482015260840162000951565b6000805b60065481101562001345576001600160a01b038481166000908152600b6020908152604080832085845290915290205416158015620012ec575081155b1562001330576001600160a01b038481166000908152600b60209081526040808320858452909152902080546001600160a01b031916918516919091179055600191505b806200133c816200184f565b915050620012af565b5050506001600160a01b03166000908152600c6020526040902080546001019055565b6000546001600160a01b03163314620008f75760405162461bcd60e51b815260206004820181905260248201527f4f776e61626c653a2063616c6c6572206973206e6f7420746865206f776e6572604482015260640162000951565b600080546001600160a01b038381166001600160a01b0319831681178455604051919092169283917f8be0079c531659141344cd1fd0a4f28419497f9722a3daafe3b4186f6b6457e09190a35050565b6125438062001a5283390190565b6116bb8062003f9583390190565b8280546200143e9062001913565b90600052602060002090601f016020900481019282620014625760008555620014ad565b82601f106200147d57805160ff1916838001178555620014ad565b82800160010185558215620014ad579182015b82811115620014ad57825182559160200191906001019062001490565b50620014bb929150620014bf565b5090565b5b80821115620014bb5760008155600101620014c0565b600060208284031215620014e957600080fd5b5035919050565b634e487b7160e01b600052604160045260246000fd5b604051601f8201601f1916810167ffffffffffffffff81118282101715620015325762001532620014f0565b604052919050565b600082601f8301126200154c57600080fd5b813567ffffffffffffffff811115620015695762001569620014f0565b6200157e601f8201601f191660200162001506565b8181528460208386010111156200159457600080fd5b816020850160208301376000918101602001919091529392505050565b80356001600160a01b0381168114620015c957600080fd5b919050565b600080600060608486031215620015e457600080fd5b833567ffffffffffffffff80821115620015fd57600080fd5b6200160b878388016200153a565b94506020915081860135818111156200162357600080fd5b8601601f810188136200163557600080fd5b8035828111156200164a576200164a620014f0565b8060051b6200165b85820162001506565b918252828101850191858101908b8411156200167657600080fd5b938601935b838510156200169f576200168f85620015b1565b825293860193908601906200167b565b9750505050604087013592505080821115620016ba57600080fd5b50620016c9868287016200153a565b9150509250925092565b6000815180845260005b81811015620016fb57602081850181015186830182015201620016dd565b818111156200170e576000602083870101525b50601f01601f19169290920160200192915050565b602081526000620017386020830184620016d3565b9392505050565b6000602082840312156200175257600080fd5b6200173882620015b1565b600080604083850312156200177157600080fd5b50508035926020909101359150565b6000806000606084860312156200179657600080fd5b620017a184620015b1565b925060208401359150620017b860408501620015b1565b90509250925092565b60008060408385031215620017d557600080fd5b620017e083620015b1565b946020939093013593505050565b634e487b7160e01b600052601160045260246000fd5b600082198211156200181a576200181a620017ee565b500190565b600082821015620018345762001834620017ee565b500390565b634e487b7160e01b600052603260045260246000fd5b6000600019821415620018665762001866620017ee565b5060010190565b604081526000620018826040830185620016d3565b8281036020840152620018968185620016d3565b95945050505050565b606080825284519082018190526000906020906080840190828801845b82811015620018e35781516001600160a01b031684529284019290840190600101620018bc565b5050506001600160a01b038616848301528381036040850152620019088186620016d3565b979650505050505050565b600181811c908216806200192857607f821691505b602082108114156200194a57634e487b7160e01b600052602260045260246000fd5b50919050565b6000602082840312156200196357600080fd5b5051919050565b60208082526010908201526f34b9903737ba1036b7b232b930ba37b960811b604082015260600190565b60208082526013908201527274686973206973206e6f74206120666f72756d60681b604082015260600190565b6020808252602a908201527f7468697320666f72756d20686173206e6f2062616c616e636520756e74696c206040820152690dccaf0e840dadedce8d60b31b606082015260800190565b600081600019048311821515161562001a285762001a28620017ee565b500290565b60006020828403121562001a4057600080fd5b815180151581146200173857600080fdfe60806040523480156200001157600080fd5b506040516200254338038062002543833981016040819052620000349162000251565b8151829082906200004d906000906020850190620000de565b50805162000063906001906020840190620000de565b505050620000806200007a6200008860201b60201c565b6200008c565b5050620002f8565b3390565b600b80546001600160a01b038381166001600160a01b0319831681179093556040519116919082907f8be0079c531659141344cd1fd0a4f28419497f9722a3daafe3b4186f6b6457e090600090a35050565b828054620000ec90620002bb565b90600052602060002090601f0160209004810192826200011057600085556200015b565b82601f106200012b57805160ff19168380011785556200015b565b828001600101855582156200015b579182015b828111156200015b5782518255916020019190600101906200013e565b50620001699291506200016d565b5090565b5b808211156200016957600081556001016200016e565b634e487b7160e01b600052604160045260246000fd5b600082601f830112620001ac57600080fd5b81516001600160401b0380821115620001c957620001c962000184565b604051601f8301601f19908116603f01168101908282118183101715620001f457620001f462000184565b816040528381526020925086838588010111156200021157600080fd5b600091505b8382101562000235578582018301518183018401529082019062000216565b83821115620002475760008385830101525b9695505050505050565b600080604083850312156200026557600080fd5b82516001600160401b03808211156200027d57600080fd5b6200028b868387016200019a565b93506020850151915080821115620002a257600080fd5b50620002b1858286016200019a565b9150509250929050565b600181811c90821680620002d057607f821691505b60208210811415620002f257634e487b7160e01b600052602260045260246000fd5b50919050565b61223b80620003086000396000f3fe608060405234801561001057600080fd5b50600436106101585760003560e01c80638129fc1c116100c3578063bc197c811161007c578063bc197c81146102c0578063c7fbe1d0146102f5578063c87b56dd14610308578063e985e9c51461031b578063f23a6e6114610357578063f2fde38b1461039057600080fd5b80638129fc1c146102665780638971b4641461026e5780638da5cb5b1461028157806395d89b4114610292578063a22cb4651461029a578063b88d4fde146102ad57600080fd5b80632f745c59116101155780632f745c59146101ff57806342842e0e146102125780634f6ccce7146102255780636352211e1461023857806370a082311461024b578063715018a61461025e57600080fd5b806301ffc9a71461015d57806306fdde0314610185578063081812fc1461019a578063095ea7b3146101c557806318160ddd146101da57806323b872dd146101ec575b600080fd5b61017061016b366004611998565b6103a3565b60405190151581526020015b60405180910390f35b61018d6103b4565b60405161017c9190611a0d565b6101ad6101a8366004611a20565b610446565b6040516001600160a01b03909116815260200161017c565b6101d86101d3366004611a55565b61046d565b005b6008545b60405190815260200161017c565b6101d86101fa366004611a7f565b610588565b6101de61020d366004611a55565b6105b9565b6101d8610220366004611a7f565b61064f565b6101de610233366004611a20565b61066a565b6101ad610246366004611a20565b6106fd565b6101de610259366004611abb565b61075d565b6101d86107e3565b6101d86107f7565b6101d861027c366004611c0b565b610864565b600b546001600160a01b03166101ad565b61018d6108f3565b6101d86102a8366004611cf6565b610902565b6101d86102bb366004611d32565b610911565b6102dc6102ce366004611e3c565b600098975050505050505050565b6040516001600160e01b0319909116815260200161017c565b6101d8610303366004611ef7565b610943565b61018d610316366004611a20565b610a0f565b610170610329366004611f2c565b6001600160a01b03918216600090815260056020908152604080832093909416825291909152205460ff1690565b6102dc610365366004611f5f565b7ff23a6e612e1ff4830e658fe43f4e3cb4a5f8170bd5d9e69fb5d7a7fa9e4fdf979695505050505050565b6101d861039e366004611abb565b610a1a565b60006103ae82610a93565b92915050565b6060600080546103c390611fd7565b80601f01602080910402602001604051908101604052809291908181526020018280546103ef90611fd7565b801561043c5780601f106104115761010080835404028352916020019161043c565b820191906000526020600020905b81548152906001019060200180831161041f57829003601f168201915b5050505050905090565b600061045182610ab8565b506000908152600460205260409020546001600160a01b031690565b6000610478826106fd565b9050806001600160a01b0316836001600160a01b031614156104eb5760405162461bcd60e51b815260206004820152602160248201527f4552433732313a20617070726f76616c20746f2063757272656e74206f776e656044820152603960f91b60648201526084015b60405180910390fd5b336001600160a01b038216148061050757506105078133610329565b6105795760405162461bcd60e51b815260206004820152603e60248201527f4552433732313a20617070726f76652063616c6c6572206973206e6f7420746f60448201527f6b656e206f776e6572206e6f7220617070726f76656420666f7220616c6c000060648201526084016104e2565b6105838383610b17565b505050565b6105923382610b85565b6105ae5760405162461bcd60e51b81526004016104e290612012565b610583838383610c04565b60006105c48361075d565b82106106265760405162461bcd60e51b815260206004820152602b60248201527f455243373231456e756d657261626c653a206f776e657220696e646578206f7560448201526a74206f6620626f756e647360a81b60648201526084016104e2565b506001600160a01b03919091166000908152600660209081526040808320938352929052205490565b61058383838360405180602001604052806000815250610911565b600061067560085490565b82106106d85760405162461bcd60e51b815260206004820152602c60248201527f455243373231456e756d657261626c653a20676c6f62616c20696e646578206f60448201526b7574206f6620626f756e647360a01b60648201526084016104e2565b600882815481106106eb576106eb612060565b90600052602060002001549050919050565b6000818152600260205260408120546001600160a01b0316806103ae5760405162461bcd60e51b8152602060048201526018602482015277115490cdcc8c4e881a5b9d985b1a59081d1bdad95b88125160421b60448201526064016104e2565b60006001600160a01b0382166107c75760405162461bcd60e51b815260206004820152602960248201527f4552433732313a2061646472657373207a65726f206973206e6f7420612076616044820152683634b21037bbb732b960b91b60648201526084016104e2565b506001600160a01b031660009081526003602052604090205490565b6107eb610dab565b6107f56000610e05565b565b6107ff610dab565b600b54600160a01b900460ff161561084f5760405162461bcd60e51b8152602060048201526013602482015272185b1c9958591e481a5b9a5d1a585b1a5e9959606a1b60448201526064016104e2565b600b805460ff60a01b1916600160a01b179055565b61086c610dab565b815160005b818110156108ed57610887600c80546001019055565b6000610892600c5490565b90506108b78583815181106108a9576108a9612060565b602002602001015182610e57565b6108da818584815181106108cd576108cd612060565b6020026020010151610fa5565b50806108e58161208c565b915050610871565b50505050565b6060600180546103c390611fd7565b61090d33838361103f565b5050565b61091b3383610b85565b6109375760405162461bcd60e51b81526004016104e290612012565b6108ed8484848461110e565b805160005b8181101561058357600061097484838151811061096757610967612060565b602002602001015161075d565b116109c15760405162461bcd60e51b815260206004820152601b60248201527f7573657220646f65736e742068617665206d656d62657273686970000000000060448201526064016104e2565b6109cb600c611141565b60006109f18483815181106109e2576109e2612060565b602002602001015160006105b9565b90506109fc81611198565b5080610a078161208c565b915050610948565b60606103ae826111a1565b610a22610dab565b6001600160a01b038116610a875760405162461bcd60e51b815260206004820152602660248201527f4f776e61626c653a206e6577206f776e657220697320746865207a65726f206160448201526564647265737360d01b60648201526084016104e2565b610a9081610e05565b50565b60006001600160e01b0319821663780e9d6360e01b14806103ae57506103ae826112aa565b6000818152600260205260409020546001600160a01b0316610a905760405162461bcd60e51b8152602060048201526018602482015277115490cdcc8c4e881a5b9d985b1a59081d1bdad95b88125160421b60448201526064016104e2565b600081815260046020526040902080546001600160a01b0319166001600160a01b0384169081179091558190610b4c826106fd565b6001600160a01b03167f8c5be1e5ebec7d5bd14f71427d1e84f3dd0314c0f7b2291e5b200ac8c7c3b92560405160405180910390a45050565b600080610b91836106fd565b9050806001600160a01b0316846001600160a01b03161480610bd857506001600160a01b0380821660009081526005602090815260408083209388168352929052205460ff165b80610bfc5750836001600160a01b0316610bf184610446565b6001600160a01b0316145b949350505050565b826001600160a01b0316610c17826106fd565b6001600160a01b031614610c7b5760405162461bcd60e51b815260206004820152602560248201527f4552433732313a207472616e736665722066726f6d20696e636f72726563742060448201526437bbb732b960d91b60648201526084016104e2565b6001600160a01b038216610cdd5760405162461bcd60e51b8152602060048201526024808201527f4552433732313a207472616e7366657220746f20746865207a65726f206164646044820152637265737360e01b60648201526084016104e2565b610ce88383836112fa565b610cf3600082610b17565b6001600160a01b0383166000908152600360205260408120805460019290610d1c9084906120a7565b90915550506001600160a01b0382166000908152600360205260408120805460019290610d4a9084906120be565b909155505060008181526002602052604080822080546001600160a01b0319166001600160a01b0386811691821790925591518493918716917fddf252ad1be2c89b69c2b068fc378daa952ba7f163c4a11628f55a4df523b3ef91a4505050565b600b546001600160a01b031633146107f55760405162461bcd60e51b815260206004820181905260248201527f4f776e61626c653a2063616c6c6572206973206e6f7420746865206f776e657260448201526064016104e2565b600b80546001600160a01b038381166001600160a01b0319831681179093556040519116919082907f8be0079c531659141344cd1fd0a4f28419497f9722a3daafe3b4186f6b6457e090600090a35050565b6001600160a01b038216610ead5760405162461bcd60e51b815260206004820181905260248201527f4552433732313a206d696e7420746f20746865207a65726f206164647265737360448201526064016104e2565b6000818152600260205260409020546001600160a01b031615610f125760405162461bcd60e51b815260206004820152601c60248201527f4552433732313a20746f6b656e20616c7265616479206d696e7465640000000060448201526064016104e2565b610f1e600083836112fa565b6001600160a01b0382166000908152600360205260408120805460019290610f479084906120be565b909155505060008181526002602052604080822080546001600160a01b0319166001600160a01b03861690811790915590518392907fddf252ad1be2c89b69c2b068fc378daa952ba7f163c4a11628f55a4df523b3ef908290a45050565b6000828152600260205260409020546001600160a01b03166110205760405162461bcd60e51b815260206004820152602e60248201527f45524337323155524953746f726167653a2055524920736574206f66206e6f6e60448201526d32bc34b9ba32b73a103a37b5b2b760911b60648201526084016104e2565b6000828152600a602090815260409091208251610583928401906118b3565b816001600160a01b0316836001600160a01b031614156110a15760405162461bcd60e51b815260206004820152601960248201527f4552433732313a20617070726f766520746f2063616c6c65720000000000000060448201526064016104e2565b6001600160a01b03838116600081815260056020908152604080832094871680845294825291829020805460ff191686151590811790915591519182527f17307eab39ab6107e8899845ad3d59bd9653f200f220920489ca2b5937696c31910160405180910390a3505050565b611119848484610c04565b61112584848484611305565b6108ed5760405162461bcd60e51b81526004016104e2906120d6565b8054806111905760405162461bcd60e51b815260206004820152601b60248201527f436f756e7465723a2064656372656d656e74206f766572666c6f77000000000060448201526064016104e2565b600019019055565b610a9081611412565b60606111ac82610ab8565b6000828152600a6020526040812080546111c590611fd7565b80601f01602080910402602001604051908101604052809291908181526020018280546111f190611fd7565b801561123e5780601f106112135761010080835404028352916020019161123e565b820191906000526020600020905b81548152906001019060200180831161122157829003601f168201915b50505050509050600061125c60408051602081019091526000815290565b905080516000141561126f575092915050565b8151156112a1578082604051602001611289929190612128565b60405160208183030381529060405292505050919050565b610bfc84611452565b60006001600160e01b031982166380ac58cd60e01b14806112db57506001600160e01b03198216635b5e139f60e01b145b806103ae57506301ffc9a760e01b6001600160e01b03198316146103ae565b6105838383836114c6565b60006001600160a01b0384163b1561140757604051630a85bd0160e11b81526001600160a01b0385169063150b7a0290611349903390899088908890600401612157565b602060405180830381600087803b15801561136357600080fd5b505af1925050508015611393575060408051601f3d908101601f1916820190925261139091810190612194565b60015b6113ed573d8080156113c1576040519150601f19603f3d011682016040523d82523d6000602084013e6113c6565b606091505b5080516113e55760405162461bcd60e51b81526004016104e2906120d6565b805181602001fd5b6001600160e01b031916630a85bd0160e11b149050610bfc565b506001949350505050565b61141b8161157e565b6000818152600a60205260409020805461143490611fd7565b159050610a90576000818152600a60205260408120610a9091611937565b606061145d82610ab8565b600061147460408051602081019091526000815290565b9050600081511161149457604051806020016040528060008152506114bf565b8061149e84611625565b6040516020016114af929190612128565b6040516020818303038152906040525b9392505050565b6001600160a01b0383166115215761151c81600880546000838152600960205260408120829055600182018355919091527ff3f7a9fe364faab93b216da50a3214154f22a0a2b415b23a84c8169e8b636ee30155565b611544565b816001600160a01b0316836001600160a01b031614611544576115448382611723565b6001600160a01b03821661155b57610583816117c0565b826001600160a01b0316826001600160a01b03161461058357610583828261186f565b6000611589826106fd565b9050611597816000846112fa565b6115a2600083610b17565b6001600160a01b03811660009081526003602052604081208054600192906115cb9084906120a7565b909155505060008281526002602052604080822080546001600160a01b0319169055518391906001600160a01b038416907fddf252ad1be2c89b69c2b068fc378daa952ba7f163c4a11628f55a4df523b3ef908390a45050565b6060816116495750506040805180820190915260018152600360fc1b602082015290565b8160005b8115611673578061165d8161208c565b915061166c9050600a836121c7565b915061164d565b60008167ffffffffffffffff81111561168e5761168e611ad6565b6040519080825280601f01601f1916602001820160405280156116b8576020820181803683370190505b5090505b8415610bfc576116cd6001836120a7565b91506116da600a866121db565b6116e59060306120be565b60f81b8183815181106116fa576116fa612060565b60200101906001600160f81b031916908160001a90535061171c600a866121c7565b94506116bc565b600060016117308461075d565b61173a91906120a7565b60008381526007602052604090205490915080821461178d576001600160a01b03841660009081526006602090815260408083208584528252808320548484528184208190558352600790915290208190555b5060009182526007602090815260408084208490556001600160a01b039094168352600681528383209183525290812055565b6008546000906117d2906001906120a7565b600083815260096020526040812054600880549394509092849081106117fa576117fa612060565b90600052602060002001549050806008838154811061181b5761181b612060565b6000918252602080832090910192909255828152600990915260408082208490558582528120556008805480611853576118536121ef565b6001900381819060005260206000200160009055905550505050565b600061187a8361075d565b6001600160a01b039093166000908152600660209081526040808320868452825280832085905593825260079052919091209190915550565b8280546118bf90611fd7565b90600052602060002090601f0160209004810192826118e15760008555611927565b82601f106118fa57805160ff1916838001178555611927565b82800160010185558215611927579182015b8281111561192757825182559160200191906001019061190c565b5061193392915061196d565b5090565b50805461194390611fd7565b6000825580601f10611953575050565b601f016020900490600052602060002090810190610a9091905b5b80821115611933576000815560010161196e565b6001600160e01b031981168114610a9057600080fd5b6000602082840312156119aa57600080fd5b81356114bf81611982565b60005b838110156119d05781810151838201526020016119b8565b838111156108ed5750506000910152565b600081518084526119f98160208601602086016119b5565b601f01601f19169290920160200192915050565b6020815260006114bf60208301846119e1565b600060208284031215611a3257600080fd5b5035919050565b80356001600160a01b0381168114611a5057600080fd5b919050565b60008060408385031215611a6857600080fd5b611a7183611a39565b946020939093013593505050565b600080600060608486031215611a9457600080fd5b611a9d84611a39565b9250611aab60208501611a39565b9150604084013590509250925092565b600060208284031215611acd57600080fd5b6114bf82611a39565b634e487b7160e01b600052604160045260246000fd5b604051601f8201601f1916810167ffffffffffffffff81118282101715611b1557611b15611ad6565b604052919050565b600067ffffffffffffffff821115611b3757611b37611ad6565b5060051b60200190565b600082601f830112611b5257600080fd5b81356020611b67611b6283611b1d565b611aec565b82815260059290921b84018101918181019086841115611b8657600080fd5b8286015b84811015611ba857611b9b81611a39565b8352918301918301611b8a565b509695505050505050565b600067ffffffffffffffff831115611bcd57611bcd611ad6565b611be0601f8401601f1916602001611aec565b9050828152838383011115611bf457600080fd5b828260208301376000602084830101529392505050565b6000806040808486031215611c1f57600080fd5b833567ffffffffffffffff80821115611c3757600080fd5b611c4387838801611b41565b9450602091508186013581811115611c5a57600080fd5b8601601f81018813611c6b57600080fd5b8035611c79611b6282611b1d565b81815260059190911b8201840190848101908a831115611c9857600080fd5b8584015b83811015611ce457803586811115611cb45760008081fd5b8501603f81018d13611cc65760008081fd5b611cd68d898301358b8401611bb3565b845250918601918601611c9c565b50809750505050505050509250929050565b60008060408385031215611d0957600080fd5b611d1283611a39565b915060208301358015158114611d2757600080fd5b809150509250929050565b60008060008060808587031215611d4857600080fd5b611d5185611a39565b9350611d5f60208601611a39565b925060408501359150606085013567ffffffffffffffff811115611d8257600080fd5b8501601f81018713611d9357600080fd5b611da287823560208401611bb3565b91505092959194509250565b60008083601f840112611dc057600080fd5b50813567ffffffffffffffff811115611dd857600080fd5b6020830191508360208260051b8501011115611df357600080fd5b9250929050565b60008083601f840112611e0c57600080fd5b50813567ffffffffffffffff811115611e2457600080fd5b602083019150836020828501011115611df357600080fd5b60008060008060008060008060a0898b031215611e5857600080fd5b611e6189611a39565b9750611e6f60208a01611a39565b9650604089013567ffffffffffffffff80821115611e8c57600080fd5b611e988c838d01611dae565b909850965060608b0135915080821115611eb157600080fd5b611ebd8c838d01611dae565b909650945060808b0135915080821115611ed657600080fd5b50611ee38b828c01611dfa565b999c989b5096995094979396929594505050565b600060208284031215611f0957600080fd5b813567ffffffffffffffff811115611f2057600080fd5b610bfc84828501611b41565b60008060408385031215611f3f57600080fd5b611f4883611a39565b9150611f5660208401611a39565b90509250929050565b60008060008060008060a08789031215611f7857600080fd5b611f8187611a39565b9550611f8f60208801611a39565b94506040870135935060608701359250608087013567ffffffffffffffff811115611fb957600080fd5b611fc589828a01611dfa565b979a9699509497509295939492505050565b600181811c90821680611feb57607f821691505b6020821081141561200c57634e487b7160e01b600052602260045260246000fd5b50919050565b6020808252602e908201527f4552433732313a2063616c6c6572206973206e6f7420746f6b656e206f776e6560408201526d1c881b9bdc88185c1c1c9bdd995960921b606082015260800190565b634e487b7160e01b600052603260045260246000fd5b634e487b7160e01b600052601160045260246000fd5b60006000198214156120a0576120a0612076565b5060010190565b6000828210156120b9576120b9612076565b500390565b600082198211156120d1576120d1612076565b500190565b60208082526032908201527f4552433732313a207472616e7366657220746f206e6f6e20455243373231526560408201527131b2b4bb32b91034b6b83632b6b2b73a32b960711b606082015260800190565b6000835161213a8184602088016119b5565b83519083019061214e8183602088016119b5565b01949350505050565b6001600160a01b038581168252841660208201526040810183905260806060820181905260009061218a908301846119e1565b9695505050505050565b6000602082840312156121a657600080fd5b81516114bf81611982565b634e487b7160e01b600052601260045260246000fd5b6000826121d6576121d66121b1565b500490565b6000826121ea576121ea6121b1565b500690565b634e487b7160e01b600052603160045260246000fdfea26469706673582212207da340359abcc5cc6688a7daf5d71d78fc88a909c358dcb94c107e7ced9846f664736f6c6343000809003360a06040526202a300600981905562015180600a556200002190600f62000273565b600b553480156200003157600080fd5b50604051620016bb380380620016bb833981016040819052620000549162000390565b6200005f3362000167565b60025460ff16151560011415620000bc5760405162461bcd60e51b815260206004820152601360248201527f616c726561647920696e697469616c697a656400000000000000000000000000604482015260640160405180910390fd5b82516001600160a01b03831660805260005b818110156200013957600160046000878481518110620000f257620000f262000483565b6020908102919091018101516001600160a01b03168252810191909152604001600020805460ff191691151591909117905580620001308162000499565b915050620000ce565b506002805460ff1916600117905581516200015c906003906020850190620001b7565b5050505050620004f4565b600080546001600160a01b038381166001600160a01b0319831681178455604051919092169283917f8be0079c531659141344cd1fd0a4f28419497f9722a3daafe3b4186f6b6457e09190a35050565b828054620001c590620004b7565b90600052602060002090601f016020900481019282620001e9576000855562000234565b82601f106200020457805160ff191683800117855562000234565b8280016001018555821562000234579182015b828111156200023457825182559160200191906001019062000217565b506200024292915062000246565b5090565b5b8082111562000242576000815560010162000247565b634e487b7160e01b600052601160045260246000fd5b60008160001904831182151516156200029057620002906200025d565b500290565b634e487b7160e01b600052604160045260246000fd5b604051601f8201601f191681016001600160401b0381118282101715620002d657620002d662000295565b604052919050565b80516001600160a01b0381168114620002f657600080fd5b919050565b600082601f8301126200030d57600080fd5b81516001600160401b0381111562000329576200032962000295565b60206200033f601f8301601f19168201620002ab565b82815285828487010111156200035457600080fd5b60005b838110156200037457858101830151828201840152820162000357565b83811115620003865760008385840101525b5095945050505050565b600080600060608486031215620003a657600080fd5b83516001600160401b0380821115620003be57600080fd5b818601915086601f830112620003d357600080fd5b8151602082821115620003ea57620003ea62000295565b8160051b620003fb828201620002ab565b928352848101820192828101908b8511156200041657600080fd5b958301955b848710156200043f576200042f87620002de565b825295830195908301906200041b565b985062000451915050888201620002de565b9550505060408601519150808211156200046a57600080fd5b506200047986828701620002fb565b9150509250925092565b634e487b7160e01b600052603260045260246000fd5b6000600019821415620004b057620004b06200025d565b5060010190565b600181811c90821680620004cc57607f821691505b60208210811415620004ee57634e487b7160e01b600052602260045260246000fd5b50919050565b60805161119662000525600039600081816105ea0152818161066f01528181610701015261095c01526111966000f3fe608060405234801561001057600080fd5b50600436106101375760003560e01c8063923231ff116100b8578063c7fbe1d01161007c578063c7fbe1d014610259578063d47875d01461026c578063d5999a5c1461027f578063dd1dd5c314610288578063f2fde38b146102b1578063fa6f3936146102c457600080fd5b8063923231ff14610208578063ae06711a14610228578063af157c1914610230578063b69cfa5114610246578063c5788d2b1461025057600080fd5b8063715018a6116100ff578063715018a6146101bf57806380f25fbd146101885780638971b464146101c75780638da5cb5b146101da5780638e22cdcd146101ff57600080fd5b8063158ef93e1461013c57806327cfe8561461015e57806339ecacac146101755780636032cb161461018a5780636c0360eb146101aa575b600080fd5b6002546101499060ff1681565b60405190151581526020015b60405180910390f35b610167600a5481565b604051908152602001610155565b610188610183366004610c33565b6102f0565b005b610167610198366004610c5d565b60076020526000908152604090205481565b6101b26103a9565b6040516101559190610cc5565b610188610437565b6101886101d5366004610db5565b61044b565b6000546001600160a01b03165b6040516001600160a01b039091168152602001610155565b61016760095481565b610167610216366004610c5d565b60056020526000908152604090205481565b6101496106df565b6102386107a1565b604051610155929190610f23565b6008546101679081565b61016760015481565b610188610267366004610f7a565b6108e6565b61016761027a366004610c5d565b6109c6565b610167600b5481565b6101e7610296366004610fb7565b6006602052600090815260409020546001600160a01b031681565b6101886102bf366004610c5d565b610ac9565b6101496102d2366004610c5d565b6001600160a01b031660009081526004602052604090205460ff1690565b6102f8610b42565b6001600160a01b03821660009081526005602052604090205461035857600061032060085490565b9050610330600880546001019055565b600090815260066020526040902080546001600160a01b0319166001600160a01b0384161790555b6001600160a01b03821660009081526007602090815260408083204290556005909152902054610389908290610fe6565b6001600160a01b0390921660009081526005602052604090209190915550565b600380546103b690610ffe565b80601f01602080910402602001604051908101604052809291908181526020018280546103e290610ffe565b801561042f5780601f106104045761010080835404028352916020019161042f565b820191906000526020600020905b81548152906001019060200180831161041257829003601f168201915b505050505081565b61043f610b42565b6104496000610b9c565b565b3360009081526004602052604090205460ff166104af5760405162461bcd60e51b815260206004820152601d60248201527f43616c6c6572206973206e6f7420616c6c6f77656420746f206d696e7400000060448201526064015b60405180910390fd5b815160008167ffffffffffffffff8111156104cc576104cc610cd8565b6040519080825280602002602001820160405280156104ff57816020015b60608152602001906001900390816104ea5790505b5090508251600014156106585760005b828110156105d2576003805461052490610ffe565b80601f016020809104026020016040519081016040528092919081815260200182805461055090610ffe565b801561059d5780601f106105725761010080835404028352916020019161059d565b820191906000526020600020905b81548152906001019060200180831161058057829003601f168201915b50505050508282815181106105b4576105b4611039565b602002602001018190525080806105ca9061104f565b91505061050f565b5060405163225c6d1960e21b81526001600160a01b037f00000000000000000000000000000000000000000000000000000000000000001690638971b46490610621908790859060040161106a565b600060405180830381600087803b15801561063b57600080fd5b505af115801561064f573d6000803e3d6000fd5b505050506106d9565b60405163225c6d1960e21b81526001600160a01b037f00000000000000000000000000000000000000000000000000000000000000001690638971b464906106a6908790879060040161106a565b600060405180830381600087803b1580156106c057600080fd5b505af11580156106d4573d6000803e3d6000fd5b505050505b50505050565b6040516370a0823160e01b815233600482015260009081906001600160a01b037f000000000000000000000000000000000000000000000000000000000000000016906370a082319060240160206040518083038186803b15801561074357600080fd5b505afa158015610757573d6000803e3d6000fd5b505050506040513d601f19601f8201168201806040525081019061077b91906110dc565b9050600081118061079b57503360009081526004602052604090205460ff165b91505090565b60608060006107af60085490565b905060008167ffffffffffffffff8111156107cc576107cc610cd8565b6040519080825280602002602001820160405280156107f5578160200160208202803683370190505b50905060008267ffffffffffffffff81111561081357610813610cd8565b60405190808252806020026020018201604052801561083c578160200160208202803683370190505b50905060005b838110156108db5760008181526006602052604090205483516001600160a01b039091169084908390811061087957610879611039565b6001600160a01b039283166020918202929092018101919091526000838152600690915260409020546108ac91166109c6565b8282815181106108be576108be611039565b6020908102919091010152806108d38161104f565b915050610842565b509094909350915050565b3360009081526004602052604090205460ff166109455760405162461bcd60e51b815260206004820152601d60248201527f43616c6c6572206973206e6f7420616c6c6f77656420746f206d696e7400000060448201526064016104a6565b604051630c7fbe1d60e41b81526001600160a01b037f0000000000000000000000000000000000000000000000000000000000000000169063c7fbe1d0906109919084906004016110f5565b600060405180830381600087803b1580156109ab57600080fd5b505af11580156109bf573d6000803e3d6000fd5b5050505050565b6001600160a01b038116600090815260056020908152604080832054600954600790935290832054909183916109fc9042611108565b1015610a0b5750612710610aae565b600b546001600160a01b038516600090815260076020526040902054610a319042611108565b1115610a3f57506000610aae565b6001600160a01b038416600090815260076020526040902054610a709061271090610a6a9042611108565b90610bec565b9050610a9d600f610a97600a610a9160095486610bff90919063ffffffff16565b90610c0b565b90610bff565b9050610aab81612710611108565b90505b6000610ac0612710610a978585610bec565b95945050505050565b610ad1610b42565b6001600160a01b038116610b365760405162461bcd60e51b815260206004820152602660248201527f4f776e61626c653a206e6577206f776e657220697320746865207a65726f206160448201526564647265737360d01b60648201526084016104a6565b610b3f81610b9c565b50565b6000546001600160a01b031633146104495760405162461bcd60e51b815260206004820181905260248201527f4f776e61626c653a2063616c6c6572206973206e6f7420746865206f776e657260448201526064016104a6565b600080546001600160a01b038381166001600160a01b0319831681178455604051919092169283917f8be0079c531659141344cd1fd0a4f28419497f9722a3daafe3b4186f6b6457e09190a35050565b6000610bf8828461111f565b9392505050565b6000610bf8828461113e565b6000610bf88284611108565b80356001600160a01b0381168114610c2e57600080fd5b919050565b60008060408385031215610c4657600080fd5b610c4f83610c17565b946020939093013593505050565b600060208284031215610c6f57600080fd5b610bf882610c17565b6000815180845260005b81811015610c9e57602081850181015186830182015201610c82565b81811115610cb0576000602083870101525b50601f01601f19169290920160200192915050565b602081526000610bf86020830184610c78565b634e487b7160e01b600052604160045260246000fd5b604051601f8201601f1916810167ffffffffffffffff81118282101715610d1757610d17610cd8565b604052919050565b600067ffffffffffffffff821115610d3957610d39610cd8565b5060051b60200190565b600082601f830112610d5457600080fd5b81356020610d69610d6483610d1f565b610cee565b82815260059290921b84018101918181019086841115610d8857600080fd5b8286015b84811015610daa57610d9d81610c17565b8352918301918301610d8c565b509695505050505050565b6000806040808486031215610dc957600080fd5b833567ffffffffffffffff80821115610de157600080fd5b610ded87838801610d43565b9450602091508186013581811115610e0457600080fd5b8601601f8082018913610e1657600080fd5b8135610e24610d6482610d1f565b81815260059190911b8301850190858101908b831115610e4357600080fd5b8685015b83811015610ecc57803587811115610e5f5760008081fd5b8601603f81018e13610e715760008081fd5b8881013588811115610e8557610e85610cd8565b610e96818801601f19168b01610cee565b8181528f8c838501011115610eab5760008081fd5b818c84018c83013760009181018b0191909152845250918701918701610e47565b5080985050505050505050509250929050565b600081518084526020808501945080840160005b83811015610f185781516001600160a01b031687529582019590820190600101610ef3565b509495945050505050565b604081526000610f366040830185610edf565b82810360208481019190915284518083528582019282019060005b81811015610f6d57845183529383019391830191600101610f51565b5090979650505050505050565b600060208284031215610f8c57600080fd5b813567ffffffffffffffff811115610fa357600080fd5b610faf84828501610d43565b949350505050565b600060208284031215610fc957600080fd5b5035919050565b634e487b7160e01b600052601160045260246000fd5b60008219821115610ff957610ff9610fd0565b500190565b600181811c9082168061101257607f821691505b6020821081141561103357634e487b7160e01b600052602260045260246000fd5b50919050565b634e487b7160e01b600052603260045260246000fd5b600060001982141561106357611063610fd0565b5060010190565b60408152600061107d6040830185610edf565b6020838203818501528185518084528284019150828160051b85010183880160005b838110156110cd57601f198784030185526110bb838351610c78565b9486019492509085019060010161109f565b50909998505050505050505050565b6000602082840312156110ee57600080fd5b5051919050565b602081526000610bf86020830184610edf565b60008282101561111a5761111a610fd0565b500390565b600081600019048311821515161561113957611139610fd0565b500290565b60008261115b57634e487b7160e01b600052601260045260246000fd5b50049056fea2646970667358221220184788a4cc6f35dccff92634a13c1de19f608e59627d03003bf514514f7b71e664736f6c63430008090033a2646970667358221220e3aeb5d12e149a23212b8b1e00cf64a199476b7e464b3ba46108a0458be3c8bd64736f6c63430008090033",
  "linkReferences": {},
  "deployedLinkReferences": {}
}