{
  "_format": "hh-sol-artifact-1",
  "contractName": "Badges",
  "sourceName": "contracts/Badges.sol",
  "abi": [
    {
      "inputs": [],
      "stateMutability": "nonpayable",
      "type": "constructor"
    },
    {
      "anonymous": false,
      "inputs": [
        {
          "indexed": true,
          "internalType": "address",
          "name": "account",
          "type": "address"
        },
        {
          "indexed": true,
          "internalType": "address",
          "name": "operator",
          "type": "address"
        },
        {
          "indexed": false,
          "internalType": "bool",
          "name": "approved",
          "type": "bool"
        }
      ],
      "name": "ApprovalForAll",
      "type": "event"
    },
    {
      "anonymous": false,
      "inputs": [
        {
          "indexed": true,
          "internalType": "address",
          "name": "previousOwner",
          "type": "address"
        },
        {
          "indexed": true,
          "internalType": "address",
          "name": "newOwner",
          "type": "address"
        }
      ],
      "name": "OwnershipTransferred",
      "type": "event"
    },
    {
      "anonymous": false,
      "inputs": [
        {
          "indexed": true,
          "internalType": "address",
          "name": "operator",
          "type": "address"
        },
        {
          "indexed": true,
          "internalType": "address",
          "name": "from",
          "type": "address"
        },
        {
          "indexed": true,
          "internalType": "address",
          "name": "to",
          "type": "address"
        },
        {
          "indexed": false,
          "internalType": "uint256[]",
          "name": "ids",
          "type": "uint256[]"
        },
        {
          "indexed": false,
          "internalType": "uint256[]",
          "name": "values",
          "type": "uint256[]"
        }
      ],
      "name": "TransferBatch",
      "type": "event"
    },
    {
      "anonymous": false,
      "inputs": [
        {
          "indexed": true,
          "internalType": "address",
          "name": "operator",
          "type": "address"
        },
        {
          "indexed": true,
          "internalType": "address",
          "name": "from",
          "type": "address"
        },
        {
          "indexed": true,
          "internalType": "address",
          "name": "to",
          "type": "address"
        },
        {
          "indexed": false,
          "internalType": "uint256",
          "name": "id",
          "type": "uint256"
        },
        {
          "indexed": false,
          "internalType": "uint256",
          "name": "value",
          "type": "uint256"
        }
      ],
      "name": "TransferSingle",
      "type": "event"
    },
    {
      "anonymous": false,
      "inputs": [
        {
          "indexed": false,
          "internalType": "string",
          "name": "value",
          "type": "string"
        },
        {
          "indexed": true,
          "internalType": "uint256",
          "name": "id",
          "type": "uint256"
        }
      ],
      "name": "URI",
      "type": "event"
    },
    {
      "inputs": [],
      "name": "BRONZE",
      "outputs": [
        {
          "internalType": "uint256",
          "name": "",
          "type": "uint256"
        }
      ],
      "stateMutability": "view",
      "type": "function"
    },
    {
      "inputs": [],
      "name": "GOLD",
      "outputs": [
        {
          "internalType": "uint256",
          "name": "",
          "type": "uint256"
        }
      ],
      "stateMutability": "view",
      "type": "function"
    },
    {
      "inputs": [],
      "name": "SILVER",
      "outputs": [
        {
          "internalType": "uint256",
          "name": "",
          "type": "uint256"
        }
      ],
      "stateMutability": "view",
      "type": "function"
    },
    {
      "inputs": [
        {
          "internalType": "address",
          "name": "account",
          "type": "address"
        },
        {
          "internalType": "uint256",
          "name": "id",
          "type": "uint256"
        }
      ],
      "name": "balanceOf",
      "outputs": [
        {
          "internalType": "uint256",
          "name": "",
          "type": "uint256"
        }
      ],
      "stateMutability": "view",
      "type": "function"
    },
    {
      "inputs": [
        {
          "internalType": "address[]",
          "name": "accounts",
          "type": "address[]"
        },
        {
          "internalType": "uint256[]",
          "name": "ids",
          "type": "uint256[]"
        }
      ],
      "name": "balanceOfBatch",
      "outputs": [
        {
          "internalType": "uint256[]",
          "name": "",
          "type": "uint256[]"
        }
      ],
      "stateMutability": "view",
      "type": "function"
    },
    {
      "inputs": [
        {
          "internalType": "address",
          "name": "account",
          "type": "address"
        },
        {
          "internalType": "address",
          "name": "operator",
          "type": "address"
        }
      ],
      "name": "isApprovedForAll",
      "outputs": [
        {
          "internalType": "bool",
          "name": "",
          "type": "bool"
        }
      ],
      "stateMutability": "view",
      "type": "function"
    },
    {
      "inputs": [
        {
          "internalType": "address",
          "name": "receiver",
          "type": "address"
        },
        {
          "internalType": "uint256",
          "name": "id",
          "type": "uint256"
        },
        {
          "internalType": "uint256",
          "name": "amount",
          "type": "uint256"
        }
      ],
      "name": "mint",
      "outputs": [],
      "stateMutability": "nonpayable",
      "type": "function"
    },
    {
      "inputs": [],
      "name": "owner",
      "outputs": [
        {
          "internalType": "address",
          "name": "",
          "type": "address"
        }
      ],
      "stateMutability": "view",
      "type": "function"
    },
    {
      "inputs": [],
      "name": "renounceOwnership",
      "outputs": [],
      "stateMutability": "nonpayable",
      "type": "function"
    },
    {
      "inputs": [
        {
          "internalType": "address",
          "name": "from",
          "type": "address"
        },
        {
          "internalType": "address",
          "name": "to",
          "type": "address"
        },
        {
          "internalType": "uint256[]",
          "name": "ids",
          "type": "uint256[]"
        },
        {
          "internalType": "uint256[]",
          "name": "amounts",
          "type": "uint256[]"
        },
        {
          "internalType": "bytes",
          "name": "data",
          "type": "bytes"
        }
      ],
      "name": "safeBatchTransferFrom",
      "outputs": [],
      "stateMutability": "nonpayable",
      "type": "function"
    },
    {
      "inputs": [
        {
          "internalType": "address",
          "name": "from",
          "type": "address"
        },
        {
          "internalType": "address",
          "name": "to",
          "type": "address"
        },
        {
          "internalType": "uint256",
          "name": "id",
          "type": "uint256"
        },
        {
          "internalType": "uint256",
          "name": "amount",
          "type": "uint256"
        },
        {
          "internalType": "bytes",
          "name": "data",
          "type": "bytes"
        }
      ],
      "name": "safeTransferFrom",
      "outputs": [],
      "stateMutability": "nonpayable",
      "type": "function"
    },
    {
      "inputs": [
        {
          "internalType": "address",
          "name": "operator",
          "type": "address"
        },
        {
          "internalType": "bool",
          "name": "approved",
          "type": "bool"
        }
      ],
      "name": "setApprovalForAll",
      "outputs": [],
      "stateMutability": "nonpayable",
      "type": "function"
    },
    {
      "inputs": [
        {
          "internalType": "bytes4",
          "name": "interfaceId",
          "type": "bytes4"
        }
      ],
      "name": "supportsInterface",
      "outputs": [
        {
          "internalType": "bool",
          "name": "",
          "type": "bool"
        }
      ],
      "stateMutability": "view",
      "type": "function"
    },
    {
      "inputs": [
        {
          "internalType": "address",
          "name": "newOwner",
          "type": "address"
        }
      ],
      "name": "transferOwnership",
      "outputs": [],
      "stateMutability": "nonpayable",
      "type": "function"
    },
    {
      "inputs": [
        {
          "internalType": "uint256",
          "name": "",
          "type": "uint256"
        }
      ],
      "name": "uri",
      "outputs": [
        {
          "internalType": "string",
          "name": "",
          "type": "string"
        }
      ],
      "stateMutability": "view",
      "type": "function"
    }
  ],
  "bytecode": "0x60806040523480156200001157600080fd5b50604051806080016040528060458152602001620018d860459139620000378162000049565b50620000433362000062565b62000197565b80516200005e906002906020840190620000b4565b5050565b600380546001600160a01b038381166001600160a01b0319831681179093556040519116919082907f8be0079c531659141344cd1fd0a4f28419497f9722a3daafe3b4186f6b6457e090600090a35050565b828054620000c2906200015a565b90600052602060002090601f016020900481019282620000e6576000855562000131565b82601f106200010157805160ff191683800117855562000131565b8280016001018555821562000131579182015b828111156200013157825182559160200191906001019062000114565b506200013f92915062000143565b5090565b5b808211156200013f576000815560010162000144565b600181811c908216806200016f57607f821691505b602082108114156200019157634e487b7160e01b600052602260045260246000fd5b50919050565b61173180620001a76000396000f3fe608060405234801561001057600080fd5b50600436106100f45760003560e01c8063715018a611610097578063e3e55f0811610066578063e3e55f08146101f0578063e985e9c5146101f8578063f242432a14610234578063f2fde38b1461024757600080fd5b8063715018a6146101b25780638da5cb5b146101ba578063a22cb465146101d5578063e00fd543146101e857600080fd5b8063156e29f6116100d3578063156e29f6146101625780632eb2c2d6146101775780633e4bee381461018a5780634e1273f41461019257600080fd5b8062fdd58e146100f957806301ffc9a71461011f5780630e89341c14610142575b600080fd5b61010c610107366004610e99565b61025a565b6040519081526020015b60405180910390f35b61013261012d366004610ed9565b6102f0565b6040519015158152602001610116565b610155610150366004610efd565b610342565b6040516101169190610f63565b610175610170366004610f76565b6103d6565b005b6101756101853660046110f5565b6103fe565b61010c600281565b6101a56101a036600461119f565b61044a565b60405161011691906112a5565b610175610574565b6003546040516001600160a01b039091168152602001610116565b6101756101e33660046112b8565b610588565b61010c600081565b61010c600181565b6101326102063660046112f4565b6001600160a01b03918216600090815260016020908152604080832093909416825291909152205460ff1690565b610175610242366004611327565b610597565b61017561025536600461138c565b6105dc565b60006001600160a01b0383166102ca5760405162461bcd60e51b815260206004820152602a60248201527f455243313135353a2061646472657373207a65726f206973206e6f742061207660448201526930b634b21037bbb732b960b11b60648201526084015b60405180910390fd5b506000908152602081815260408083206001600160a01b03949094168352929052205490565b60006001600160e01b03198216636cdb3d1360e11b148061032157506001600160e01b031982166303a24d0760e21b145b8061033c57506301ffc9a760e01b6001600160e01b03198316145b92915050565b606060028054610351906113a7565b80601f016020809104026020016040519081016040528092919081815260200182805461037d906113a7565b80156103ca5780601f1061039f576101008083540402835291602001916103ca565b820191906000526020600020905b8154815290600101906020018083116103ad57829003601f168201915b50505050509050919050565b6103de610655565b6103f9838383604051806020016040528060008152506106af565b505050565b6001600160a01b03851633148061041a575061041a8533610206565b6104365760405162461bcd60e51b81526004016102c1906113e2565b61044385858585856107c3565b5050505050565b606081518351146104af5760405162461bcd60e51b815260206004820152602960248201527f455243313135353a206163636f756e747320616e6420696473206c656e677468604482015268040dad2e6dac2e8c6d60bb1b60648201526084016102c1565b6000835167ffffffffffffffff8111156104cb576104cb610fa9565b6040519080825280602002602001820160405280156104f4578160200160208202803683370190505b50905060005b845181101561056c5761053f85828151811061051857610518611431565b602002602001015185838151811061053257610532611431565b602002602001015161025a565b82828151811061055157610551611431565b60209081029190910101526105658161145d565b90506104fa565b509392505050565b61057c610655565b61058660006109a0565b565b6105933383836109f2565b5050565b6001600160a01b0385163314806105b357506105b38533610206565b6105cf5760405162461bcd60e51b81526004016102c1906113e2565b6104438585858585610ad3565b6105e4610655565b6001600160a01b0381166106495760405162461bcd60e51b815260206004820152602660248201527f4f776e61626c653a206e6577206f776e657220697320746865207a65726f206160448201526564647265737360d01b60648201526084016102c1565b610652816109a0565b50565b6003546001600160a01b031633146105865760405162461bcd60e51b815260206004820181905260248201527f4f776e61626c653a2063616c6c6572206973206e6f7420746865206f776e657260448201526064016102c1565b6001600160a01b03841661070f5760405162461bcd60e51b815260206004820152602160248201527f455243313135353a206d696e7420746f20746865207a65726f206164647265736044820152607360f81b60648201526084016102c1565b33600061071b85610bfd565b9050600061072885610bfd565b90506000868152602081815260408083206001600160a01b038b1684529091528120805487929061075a908490611478565b909155505060408051878152602081018790526001600160a01b03808a1692600092918716917fc3d58168c5ae7397731d063d5bbf3d657854427343f4c083240f7aacaa2d0f62910160405180910390a46107ba83600089898989610c48565b50505050505050565b81518351146108255760405162461bcd60e51b815260206004820152602860248201527f455243313135353a2069647320616e6420616d6f756e7473206c656e677468206044820152670dad2e6dac2e8c6d60c31b60648201526084016102c1565b6001600160a01b03841661084b5760405162461bcd60e51b81526004016102c190611490565b3360005b845181101561093257600085828151811061086c5761086c611431565b60200260200101519050600085838151811061088a5761088a611431565b602090810291909101810151600084815280835260408082206001600160a01b038e1683529093529190912054909150818110156108da5760405162461bcd60e51b81526004016102c1906114d5565b6000838152602081815260408083206001600160a01b038e8116855292528083208585039055908b16825281208054849290610917908490611478565b925050819055505050508061092b9061145d565b905061084f565b50846001600160a01b0316866001600160a01b0316826001600160a01b03167f4a39dc06d4c0dbc64b70af90fd698a233a518aa5d07e595d983b8c0526c8f7fb878760405161098292919061151f565b60405180910390a4610998818787878787610db3565b505050505050565b600380546001600160a01b038381166001600160a01b0319831681179093556040519116919082907f8be0079c531659141344cd1fd0a4f28419497f9722a3daafe3b4186f6b6457e090600090a35050565b816001600160a01b0316836001600160a01b03161415610a665760405162461bcd60e51b815260206004820152602960248201527f455243313135353a2073657474696e6720617070726f76616c20737461747573604482015268103337b91039b2b63360b91b60648201526084016102c1565b6001600160a01b03838116600081815260016020908152604080832094871680845294825291829020805460ff191686151590811790915591519182527f17307eab39ab6107e8899845ad3d59bd9653f200f220920489ca2b5937696c31910160405180910390a3505050565b6001600160a01b038416610af95760405162461bcd60e51b81526004016102c190611490565b336000610b0585610bfd565b90506000610b1285610bfd565b90506000868152602081815260408083206001600160a01b038c16845290915290205485811015610b555760405162461bcd60e51b81526004016102c1906114d5565b6000878152602081815260408083206001600160a01b038d8116855292528083208985039055908a16825281208054889290610b92908490611478565b909155505060408051888152602081018890526001600160a01b03808b16928c821692918816917fc3d58168c5ae7397731d063d5bbf3d657854427343f4c083240f7aacaa2d0f62910160405180910390a4610bf2848a8a8a8a8a610c48565b505050505050505050565b60408051600180825281830190925260609160009190602080830190803683370190505090508281600081518110610c3757610c37611431565b602090810291909101015292915050565b6001600160a01b0384163b156109985760405163f23a6e6160e01b81526001600160a01b0385169063f23a6e6190610c8c908990899088908890889060040161154d565b602060405180830381600087803b158015610ca657600080fd5b505af1925050508015610cd6575060408051601f3d908101601f19168201909252610cd391810190611592565b60015b610d8357610ce26115af565b806308c379a01415610d1c5750610cf76115cb565b80610d025750610d1e565b8060405162461bcd60e51b81526004016102c19190610f63565b505b60405162461bcd60e51b815260206004820152603460248201527f455243313135353a207472616e7366657220746f206e6f6e20455243313135356044820152732932b1b2b4bb32b91034b6b83632b6b2b73a32b960611b60648201526084016102c1565b6001600160e01b0319811663f23a6e6160e01b146107ba5760405162461bcd60e51b81526004016102c190611655565b6001600160a01b0384163b156109985760405163bc197c8160e01b81526001600160a01b0385169063bc197c8190610df7908990899088908890889060040161169d565b602060405180830381600087803b158015610e1157600080fd5b505af1925050508015610e41575060408051601f3d908101601f19168201909252610e3e91810190611592565b60015b610e4d57610ce26115af565b6001600160e01b0319811663bc197c8160e01b146107ba5760405162461bcd60e51b81526004016102c190611655565b80356001600160a01b0381168114610e9457600080fd5b919050565b60008060408385031215610eac57600080fd5b610eb583610e7d565b946020939093013593505050565b6001600160e01b03198116811461065257600080fd5b600060208284031215610eeb57600080fd5b8135610ef681610ec3565b9392505050565b600060208284031215610f0f57600080fd5b5035919050565b6000815180845260005b81811015610f3c57602081850181015186830182015201610f20565b81811115610f4e576000602083870101525b50601f01601f19169290920160200192915050565b602081526000610ef66020830184610f16565b600080600060608486031215610f8b57600080fd5b610f9484610e7d565b95602085013595506040909401359392505050565b634e487b7160e01b600052604160045260246000fd5b601f8201601f1916810167ffffffffffffffff81118282101715610fe557610fe5610fa9565b6040525050565b600067ffffffffffffffff82111561100657611006610fa9565b5060051b60200190565b600082601f83011261102157600080fd5b8135602061102e82610fec565b60405161103b8282610fbf565b83815260059390931b850182019282810191508684111561105b57600080fd5b8286015b84811015611076578035835291830191830161105f565b509695505050505050565b600082601f83011261109257600080fd5b813567ffffffffffffffff8111156110ac576110ac610fa9565b6040516110c3601f8301601f191660200182610fbf565b8181528460208386010111156110d857600080fd5b816020850160208301376000918101602001919091529392505050565b600080600080600060a0868803121561110d57600080fd5b61111686610e7d565b945061112460208701610e7d565b9350604086013567ffffffffffffffff8082111561114157600080fd5b61114d89838a01611010565b9450606088013591508082111561116357600080fd5b61116f89838a01611010565b9350608088013591508082111561118557600080fd5b5061119288828901611081565b9150509295509295909350565b600080604083850312156111b257600080fd5b823567ffffffffffffffff808211156111ca57600080fd5b818501915085601f8301126111de57600080fd5b813560206111eb82610fec565b6040516111f88282610fbf565b83815260059390931b850182019282810191508984111561121857600080fd5b948201945b8386101561123d5761122e86610e7d565b8252948201949082019061121d565b9650508601359250508082111561125357600080fd5b5061126085828601611010565b9150509250929050565b600081518084526020808501945080840160005b8381101561129a5781518752958201959082019060010161127e565b509495945050505050565b602081526000610ef6602083018461126a565b600080604083850312156112cb57600080fd5b6112d483610e7d565b9150602083013580151581146112e957600080fd5b809150509250929050565b6000806040838503121561130757600080fd5b61131083610e7d565b915061131e60208401610e7d565b90509250929050565b600080600080600060a0868803121561133f57600080fd5b61134886610e7d565b945061135660208701610e7d565b93506040860135925060608601359150608086013567ffffffffffffffff81111561138057600080fd5b61119288828901611081565b60006020828403121561139e57600080fd5b610ef682610e7d565b600181811c908216806113bb57607f821691505b602082108114156113dc57634e487b7160e01b600052602260045260246000fd5b50919050565b6020808252602f908201527f455243313135353a2063616c6c6572206973206e6f7420746f6b656e206f776e60408201526e195c881b9bdc88185c1c1c9bdd9959608a1b606082015260800190565b634e487b7160e01b600052603260045260246000fd5b634e487b7160e01b600052601160045260246000fd5b600060001982141561147157611471611447565b5060010190565b6000821982111561148b5761148b611447565b500190565b60208082526025908201527f455243313135353a207472616e7366657220746f20746865207a65726f206164604082015264647265737360d81b606082015260800190565b6020808252602a908201527f455243313135353a20696e73756666696369656e742062616c616e636520666f60408201526939103a3930b739b332b960b11b606082015260800190565b604081526000611532604083018561126a565b8281036020840152611544818561126a565b95945050505050565b6001600160a01b03868116825285166020820152604081018490526060810183905260a06080820181905260009061158790830184610f16565b979650505050505050565b6000602082840312156115a457600080fd5b8151610ef681610ec3565b600060033d11156115c85760046000803e5060005160e01c5b90565b600060443d10156115d95790565b6040516003193d81016004833e81513d67ffffffffffffffff816024840111818411171561160957505050505090565b82850191508151818111156116215750505050505090565b843d870101602082850101111561163b5750505050505090565b61164a60208286010187610fbf565b509095945050505050565b60208082526028908201527f455243313135353a204552433131353552656365697665722072656a656374656040820152676420746f6b656e7360c01b606082015260800190565b6001600160a01b0386811682528516602082015260a0604082018190526000906116c99083018661126a565b82810360608401526116db818661126a565b905082810360808401526116ef8185610f16565b9897505050505050505056fea26469706673582212205688b9524ce9a12df3f195cb4e614d05060467d4273ccf57162f47d6fe904b4864736f6c63430008090033626166796265696362666565627a73346e747775356b747365666d6967376e7a74797a357075786e62763477646d366575697662716634696871612f6d657461646174612f",
  "linkReferences": {},
  "deployedLinkReferences": {}
}